{
  "address": "0x4225Ac103671126981da70Be44eDB476F3253B7D",
  "abi": [
    {
      "inputs": [
        {
          "internalType": "address",
          "name": "lendingPoolAddressesProviderAddress",
          "type": "address"
        },
        {
          "internalType": "address",
          "name": "uniswapRouterAddress",
          "type": "address"
        }
      ],
      "stateMutability": "nonpayable",
      "type": "constructor"
    },
    {
      "anonymous": false,
      "inputs": [
        {
          "indexed": false,
          "internalType": "address",
          "name": "ape",
          "type": "address"
        },
        {
          "indexed": false,
          "internalType": "string",
          "name": "action",
          "type": "string"
        },
        {
          "indexed": false,
          "internalType": "address",
          "name": "apeAsset",
          "type": "address"
        },
        {
          "indexed": false,
          "internalType": "address",
          "name": "borrowAsset",
          "type": "address"
        },
        {
          "indexed": false,
          "internalType": "uint256",
          "name": "borrowAmount",
          "type": "uint256"
        },
        {
          "indexed": false,
          "internalType": "uint256",
          "name": "apeAmount",
          "type": "uint256"
        },
        {
          "indexed": false,
          "internalType": "uint256",
          "name": "interestRateMode",
          "type": "uint256"
        }
      ],
      "name": "Ape",
      "type": "event"
    },
    {
      "inputs": [],
      "name": "ADDRESSES_PROVIDER",
      "outputs": [
        {
          "internalType": "contract ILendingPoolAddressesProvider",
          "name": "",
          "type": "address"
        }
      ],
      "stateMutability": "view",
      "type": "function"
    },
    {
      "inputs": [],
      "name": "LENDING_POOL",
      "outputs": [
        {
          "internalType": "contract ILendingPool",
          "name": "",
          "type": "address"
        }
      ],
      "stateMutability": "view",
      "type": "function"
    },
    {
      "inputs": [],
      "name": "PROTOCOL_DATA_PROVIDER_LOOKUP",
      "outputs": [
        {
          "internalType": "bytes32",
          "name": "",
          "type": "bytes32"
        }
      ],
      "stateMutability": "view",
      "type": "function"
    },
    {
      "inputs": [],
      "name": "UNISWAP_ROUTER",
      "outputs": [
        {
          "internalType": "contract IUniswapV2Router02",
          "name": "",
          "type": "address"
        }
      ],
      "stateMutability": "view",
      "type": "function"
    },
    {
      "inputs": [],
      "name": "UNISWAP_ROUTER_ADDRESS",
      "outputs": [
        {
          "internalType": "address",
          "name": "",
          "type": "address"
        }
      ],
      "stateMutability": "view",
      "type": "function"
    },
    {
      "inputs": [
        {
          "internalType": "address",
          "name": "apeAsset",
          "type": "address"
        },
        {
          "internalType": "address",
          "name": "borrowAsset",
          "type": "address"
        },
        {
          "internalType": "uint256",
          "name": "interestRateMode",
          "type": "uint256"
        }
      ],
      "name": "ape",
      "outputs": [
        {
          "internalType": "bool",
          "name": "",
          "type": "bool"
        }
      ],
      "stateMutability": "nonpayable",
      "type": "function"
    },
    {
      "inputs": [
        {
          "internalType": "address[]",
          "name": "assets",
          "type": "address[]"
        },
        {
          "internalType": "uint256[]",
          "name": "amounts",
          "type": "uint256[]"
        },
        {
          "internalType": "uint256[]",
          "name": "premiums",
          "type": "uint256[]"
        },
        {
          "internalType": "address",
          "name": "initiator",
          "type": "address"
        },
        {
          "internalType": "bytes",
          "name": "params",
          "type": "bytes"
        }
      ],
      "name": "executeOperation",
      "outputs": [
        {
          "internalType": "bool",
          "name": "",
          "type": "bool"
        }
      ],
      "stateMutability": "nonpayable",
      "type": "function"
    },
    {
      "inputs": [
        {
          "internalType": "address",
          "name": "asset",
          "type": "address"
        }
      ],
      "name": "getAaveAssetReserveData",
      "outputs": [
        {
          "components": [
            {
              "components": [
                {
                  "internalType": "uint256",
                  "name": "data",
                  "type": "uint256"
                }
              ],
              "internalType": "struct DataTypes.ReserveConfigurationMap",
              "name": "configuration",
              "type": "tuple"
            },
            {
              "internalType": "uint128",
              "name": "liquidityIndex",
              "type": "uint128"
            },
            {
              "internalType": "uint128",
              "name": "variableBorrowIndex",
              "type": "uint128"
            },
            {
              "internalType": "uint128",
              "name": "currentLiquidityRate",
              "type": "uint128"
            },
            {
              "internalType": "uint128",
              "name": "currentVariableBorrowRate",
              "type": "uint128"
            },
            {
              "internalType": "uint128",
              "name": "currentStableBorrowRate",
              "type": "uint128"
            },
            {
              "internalType": "uint40",
              "name": "lastUpdateTimestamp",
              "type": "uint40"
            },
            {
              "internalType": "address",
              "name": "aTokenAddress",
              "type": "address"
            },
            {
              "internalType": "address",
              "name": "stableDebtTokenAddress",
              "type": "address"
            },
            {
              "internalType": "address",
              "name": "variableDebtTokenAddress",
              "type": "address"
            },
            {
              "internalType": "address",
              "name": "interestRateStrategyAddress",
              "type": "address"
            },
            {
              "internalType": "uint8",
              "name": "id",
              "type": "uint8"
            }
          ],
          "internalType": "struct DataTypes.ReserveData",
          "name": "",
          "type": "tuple"
        }
      ],
      "stateMutability": "view",
      "type": "function"
    },
    {
      "inputs": [
        {
          "internalType": "address",
          "name": "asset",
          "type": "address"
        },
        {
          "internalType": "uint256",
          "name": "amountInEth",
          "type": "uint256"
        }
      ],
      "name": "getAssetAmount",
      "outputs": [
        {
          "internalType": "uint256",
          "name": "",
          "type": "uint256"
        }
      ],
      "stateMutability": "view",
      "type": "function"
    },
    {
      "inputs": [
        {
          "internalType": "address",
          "name": "borrowAsset",
          "type": "address"
        },
        {
          "internalType": "address",
          "name": "ape",
          "type": "address"
        }
      ],
      "name": "getAvailableBorrowInAsset",
      "outputs": [
        {
          "internalType": "uint256",
          "name": "",
          "type": "uint256"
        }
      ],
      "stateMutability": "view",
      "type": "function"
    },
    {
      "inputs": [
        {
          "internalType": "address",
          "name": "apeAsset",
          "type": "address"
        },
        {
          "internalType": "address",
          "name": "borrowAsset",
          "type": "address"
        },
        {
          "internalType": "uint256",
          "name": "interestRateMode",
          "type": "uint256"
        },
        {
          "internalType": "uint256",
          "name": "levers",
          "type": "uint256"
        }
      ],
      "name": "superApe",
      "outputs": [
        {
          "internalType": "bool",
          "name": "",
          "type": "bool"
        }
      ],
      "stateMutability": "nonpayable",
      "type": "function"
    },
    {
      "inputs": [
        {
          "internalType": "address",
          "name": "apeAsset",
          "type": "address"
        },
        {
          "internalType": "address",
          "name": "borrowAsset",
          "type": "address"
        },
        {
          "internalType": "uint256",
          "name": "interestRateMode",
          "type": "uint256"
        }
      ],
      "name": "unwindApe",
      "outputs": [],
      "stateMutability": "nonpayable",
      "type": "function"
    }
  ],
  "transactionHash": "0x3e56eeb387d25eeac23e488c97ea5a49049b801e4cf4a07cd9d0f5ec0006cd86",
  "args": [
    "0x012bAC54348C0E635dCAc9D5FB99f06F24136C9A",
    "0x7a250d5630B4cF539739dF2C5dAcb4c659F2488D"
  ],
  "numDeployments": 2,
  "solcInputHash": "828034386a5eeb7cd0541d87f7f0e778",
  "bytecode": "0x60e06040523480156200001157600080fd5b506040516200255d3803806200255d83398101604081905262000034916200006e565b6001600160a01b039182166080521660a081905260c052620000a6565b80516001600160a01b03811681146200006957600080fd5b919050565b600080604083850312156200008257600080fd5b6200008d8362000051565b91506200009d6020840162000051565b90509250929050565b60805160a05160c05161242d620001306000396000818161015901528181610af50152818161138801526117980152600081816101c601528181610bf8015261189a01526000818160be01528181610404015281816106fb01528181610cd101528181610ec301528181610f3b01528181610ff10152818161145d01526115dc015261242d6000f3fe608060405234801561001057600080fd5b50600436106100b45760003560e01c8063923daa2a11610071578063923daa2a1461018e578063aed36ec1146101ae578063b4dcfc77146101b9578063d8264920146101c1578063eff278f3146101e8578063f4a74cce146101fd57600080fd5b80630542975c146100b9578063098df999146100fd57806324f5221f146101205780632c7ddded1461014157806379b3694314610154578063920f5c841461017b575b600080fd5b6100e07f000000000000000000000000000000000000000000000000000000000000000081565b6040516001600160a01b0390911681526020015b60405180910390f35b61011061010b366004611959565b610210565b60405190151581526020016100f4565b61013361012e36600461199f565b610246565b6040519081526020016100f4565b61013361014f3660046119d8565b6102d8565b6100e07f000000000000000000000000000000000000000000000000000000000000000081565b610110610189366004611a50565b610400565b6101a161019c366004611b55565b610619565b6040516100f49190611b72565b610133600160f81b81565b6100e06106f6565b6100e07f000000000000000000000000000000000000000000000000000000000000000081565b6101fb6101f6366004611c80565b61077b565b005b61011061020b366004611c80565b6109fd565b6000805b8281101561023a576102278686866109fd565b508061023281611cd7565b915050610214565b50600195945050505050565b6000806102516106f6565b604051632fe4a15f60e21b81526001600160a01b038581166004830152919091169063bf92857c9060240160c060405180830381865afa158015610299573d6000803e3d6000fd5b505050506040513d601f19601f820116820180604052508101906102bd9190611cf0565b505050925050506102ce84826102d8565b9150505b92915050565b6000806102e3610ebe565b60405163b3596f0760e01b81526001600160a01b038681166004830152919091169063b3596f0790602401602060405180830381865afa15801561032b573d6000803e3d6000fd5b505050506040513d601f19601f8201168201806040525081019061034f9190611d3a565b9050600061035b610f1f565b604051633e15014160e01b81526001600160a01b0387811660048301529190911690633e1501419060240161014060405180830381865afa1580156103a4573d6000803e3d6000fd5b505050506040513d601f19601f820116820180604052508101906103c89190611d68565b505050505050505050905060006103f6836103f084600a6103e99190611ee3565b8890610fb3565b90610fc6565b9695505050505050565b60007f00000000000000000000000000000000000000000000000000000000000000006001600160a01b0316630261bf8b6040518163ffffffff1660e01b8152600401602060405180830381865afa158015610460573d6000803e3d6000fd5b505050506040513d601f19601f820116820180604052508101906104849190611efa565b6001600160a01b0316336001600160a01b0316146104fe5760405162461bcd60e51b815260206004820152602c60248201527f6f6e6c7920746865206c656e64696e6720706f6f6c2063616e2063616c6c207460448201526b3434b990333ab731ba34b7b760a11b60648201526084015b60405180910390fd5b6001600160a01b03841630146105665760405162461bcd60e51b815260206004820152602760248201527f7468652061706520646964206e6f7420696e697469617465207468697320666c60448201526630b9b43637b0b760c91b60648201526084016104f5565b60008a8a600081811061057b5761057b611f17565b90506020020160208101906105909190611b55565b90506000898960008181106105a7576105a7611f17565b90506020020135905060006105de898960008181106105c8576105c8611f17565b9050602002013583610fd290919063ffffffff16565b9050600080806105f0888a018a611c80565b925092509250610604838388888886610fde565b96505050505050509998505050505050505050565b604080516101a08101825260006101808201818152825260208201819052918101829052606081018290526080810182905260a0810182905260c0810182905260e081018290526101008101829052610120810182905261014081018290526101608101919091526106896106f6565b6040516335ea6a7560e01b81526001600160a01b03848116600483015291909116906335ea6a759060240161018060405180830381865afa1580156106d2573d6000803e3d6000fd5b505050506040513d601f19601f820116820180604052508101906102d2919061201d565b6000807f00000000000000000000000000000000000000000000000000000000000000006001600160a01b0316630261bf8b6040518163ffffffff1660e01b8152600401602060405180830381865afa158015610757573d6000803e3d6000fd5b505050506040513d601f19601f820116820180604052508101906102d29190611efa565b600080610786610f1f565b6040516328dd2d0160e01b81526001600160a01b03868116600483015233602483015291909116906328dd2d019060440161012060405180830381865afa1580156107d5573d6000803e3d6000fd5b505050506040513d601f19601f820116820180604052508101906107f9919061210a565b5050505050509250925050600083600103610815575081610820565b836002036108205750805b600081116108695760405162461bcd60e51b815260206004820152601660248201527552657175697265732064656274206f6e20416176652160501b60448201526064016104f5565b6040805160018082528183019092523091600091906020808301908036833701905050905086816000815181106108a2576108a2611f17565b6001600160a01b03929092166020928302919091019091015260408051600180825281830190925260009181602001602082028036833701905050905083816000815181106108f3576108f3611f17565b602090810291909101015260408051600180825281830190925260009181602001602082028036833701905050905060008160008151811061093757610937611f17565b6020908102919091018101919091526040805133928101929092526001600160a01b038c168282015260608083018b90528151808403909101815260809092019052309060006109856106f6565b6001600160a01b031663ab9c4b5d888888888888886040518863ffffffff1660e01b81526004016109bc97969594939291906121f5565b600060405180830381600087803b1580156109d657600080fd5b505af11580156109ea573d6000803e3d6000fd5b5050505050505050505050505050505050565b600080610a0a8433610246565b905060008111610a5c5760405162461bcd60e51b815260206004820152601860248201527f526571756972657320637265646974206f6e204161766521000000000000000060448201526064016104f5565b6000610a666106f6565b60405163a415bcad60e01b81526001600160a01b0387811660048301526024820185905260448201879052600060648301523360848301529192509082169063a415bcad9060a401600060405180830381600087803b158015610ac857600080fd5b505af1158015610adc573d6000803e3d6000fd5b505060405163095ea7b360e01b81526001600160a01b037f000000000000000000000000000000000000000000000000000000000000000081166004830152602482018690528816925063095ea7b391506044016020604051808303816000875af1158015610b4f573d6000803e3d6000fd5b505050506040513d601f19601f82011682018060405250810190610b7391906122a7565b506040805160028082526060820183526000926020830190803683370190505090508581600081518110610ba957610ba9611f17565b60200260200101906001600160a01b031690816001600160a01b0316815250508681600181518110610bdd57610bdd611f17565b6001600160a01b0392831660209182029290920101526000907f0000000000000000000000000000000000000000000000000000000000000000166338ed173985838530610c2c4260056122c2565b6040518663ffffffff1660e01b8152600401610c4c9594939291906122d5565b6000604051808303816000875af1158015610c6b573d6000803e3d6000fd5b505050506040513d6000823e601f3d908101601f19168201604052610c939190810190612311565b905060008160018351610ca691906123ab565b81518110610cb657610cb6611f17565b60200260200101519050886001600160a01b031663095ea7b37f00000000000000000000000000000000000000000000000000000000000000006001600160a01b0316630261bf8b6040518163ffffffff1660e01b8152600401602060405180830381865afa158015610d2d573d6000803e3d6000fd5b505050506040513d601f19601f82011682018060405250810190610d519190611efa565b6040516001600160e01b031960e084901b1681526001600160a01b039091166004820152602481018490526044016020604051808303816000875af1158015610d9e573d6000803e3d6000fd5b505050506040513d601f19601f82011682018060405250810190610dc291906122a7565b5060405163e8eda9df60e01b81526001600160a01b038a81166004830152602482018390523360448301526000606483015285169063e8eda9df90608401600060405180830381600087803b158015610e1a57600080fd5b505af1158015610e2e573d6000803e3d6000fd5b50506040805133815260e0602082018190526004908201526337b832b760e11b6101008201526001600160a01b038d8116828401528c1660608201526080810189905260a0810185905260c081018b905290517fed1a51b9740a2824e026a65b28e087347ef688d1217fe8b53e01f358b2340228935090819003610120019150a150600198975050505050505050565b6000807f00000000000000000000000000000000000000000000000000000000000000006001600160a01b031663fca513a86040518163ffffffff1660e01b8152600401602060405180830381865afa158015610757573d6000803e3d6000fd5b6040516321f8a72160e01b8152600160f81b60048201526000907f00000000000000000000000000000000000000000000000000000000000000006001600160a01b0316906321f8a72190602401602060405180830381865afa158015610f8a573d6000803e3d6000fd5b505050506040513d601f19601f82011682018060405250810190610fae9190611efa565b905090565b6000610fbf82846123be565b9392505050565b6000610fbf82846123d5565b6000610fbf82846122c2565b6000846001600160a01b031663095ea7b37f00000000000000000000000000000000000000000000000000000000000000006001600160a01b0316630261bf8b6040518163ffffffff1660e01b8152600401602060405180830381865afa15801561104d573d6000803e3d6000fd5b505050506040513d601f19601f820116820180604052508101906110719190611efa565b6040516001600160e01b031960e084901b1681526001600160a01b039091166004820152602481018790526044016020604051808303816000875af11580156110be573d6000803e3d6000fd5b505050506040513d601f19601f820116820180604052508101906110e291906122a7565b506110eb6106f6565b60405163573ade8160e01b81526001600160a01b03878116600483015260248201879052604482018590528981166064830152919091169063573ade81906084016020604051808303816000875af115801561114b573d6000803e3d6000fd5b505050506040513d601f19601f8201168201806040525081019061116f9190611d3a565b50600061117c8789610246565b9050600061118988610619565b60e08101516040516370a0823160e01b81526001600160a01b038c8116600483015292935090918491908316906370a0823190602401602060405180830381865afa1580156111dc573d6000803e3d6000fd5b505050506040513d601f19601f820116820180604052508101906112009190611d3a565b1015611273576040516370a0823160e01b81526001600160a01b038b811660048301528216906370a0823190602401602060405180830381865afa15801561124c573d6000803e3d6000fd5b505050506040513d601f19601f820116820180604052508101906112709190611d3a565b92505b6040516323b872dd60e01b81526001600160a01b038b81166004830152306024830152604482018590528216906323b872dd906064016020604051808303816000875af11580156112c8573d6000803e3d6000fd5b505050506040513d601f19601f820116820180604052508101906112ec91906122a7565b506112f56106f6565b604051631a4ca37b60e21b81526001600160a01b038b811660048301526024820186905230604483015291909116906369328dec906064016020604051808303816000875af115801561134c573d6000803e3d6000fd5b505050506040513d601f19601f820116820180604052508101906113709190611d3a565b5060405163095ea7b360e01b81526001600160a01b037f000000000000000000000000000000000000000000000000000000000000000081166004830152602482018590528a169063095ea7b3906044016020604051808303816000875af11580156113e0573d6000803e3d6000fd5b505050506040513d601f19601f8201168201806040525081019061140491906122a7565b50600061141387858c8c611781565b905060006114448260008151811061142d5761142d611f17565b60200260200101518661193590919063ffffffff16565b905080156115cb578a6001600160a01b031663095ea7b37f00000000000000000000000000000000000000000000000000000000000000006001600160a01b0316630261bf8b6040518163ffffffff1660e01b8152600401602060405180830381865afa1580156114b9573d6000803e3d6000fd5b505050506040513d601f19601f820116820180604052508101906114dd9190611efa565b6040516001600160e01b031960e084901b1681526001600160a01b039091166004820152602481018490526044016020604051808303816000875af115801561152a573d6000803e3d6000fd5b505050506040513d601f19601f8201168201806040525081019061154e91906122a7565b506115576106f6565b60405163e8eda9df60e01b81526001600160a01b038d81166004830152602482018490528e8116604483015260006064830152919091169063e8eda9df90608401600060405180830381600087803b1580156115b257600080fd5b505af11580156115c6573d6000803e3d6000fd5b505050505b896001600160a01b031663095ea7b37f00000000000000000000000000000000000000000000000000000000000000006001600160a01b0316630261bf8b6040518163ffffffff1660e01b8152600401602060405180830381865afa158015611638573d6000803e3d6000fd5b505050506040513d601f19601f8201168201806040525081019061165c9190611efa565b6040516001600160e01b031960e084901b1681526001600160a01b039091166004820152602481018b90526044016020604051808303816000875af11580156116a9573d6000803e3d6000fd5b505050506040513d601f19601f820116820180604052508101906116cd91906122a7565b507fed1a51b9740a2824e026a65b28e087347ef688d1217fe8b53e01f358b23402288c8c8c8b8660008151811061170657611706611f17565b602090810291909101810151604080516001600160a01b03978816815260e093810184905260059381019390935264636c6f736560d81b61010084015294861682860152929094166060850152608084015260a083015260c082018a905251908190036101200190a15060019b9a5050505050505050505050565b60405163095ea7b360e01b81526001600160a01b037f000000000000000000000000000000000000000000000000000000000000000081166004830152602482018590526060919084169063095ea7b3906044016020604051808303816000875af11580156117f4573d6000803e3d6000fd5b505050506040513d601f19601f8201168201806040525081019061181891906122a7565b50604080516002808252606082018352600092602083019080368337019050509050838160008151811061184e5761184e611f17565b60200260200101906001600160a01b031690816001600160a01b031681525050828160018151811061188257611882611f17565b6001600160a01b0392831660209182029290920101527f000000000000000000000000000000000000000000000000000000000000000016638803dbee878784306118ce4260056122c2565b6040518663ffffffff1660e01b81526004016118ee9594939291906122d5565b6000604051808303816000875af115801561190d573d6000803e3d6000fd5b505050506040513d6000823e601f3d908101601f191682016040526103f69190810190612311565b6000610fbf82846123ab565b6001600160a01b038116811461195657600080fd5b50565b6000806000806080858703121561196f57600080fd5b843561197a81611941565b9350602085013561198a81611941565b93969395505050506040820135916060013590565b600080604083850312156119b257600080fd5b82356119bd81611941565b915060208301356119cd81611941565b809150509250929050565b600080604083850312156119eb57600080fd5b82356119f681611941565b946020939093013593505050565b60008083601f840112611a1657600080fd5b50813567ffffffffffffffff811115611a2e57600080fd5b6020830191508360208260051b8501011115611a4957600080fd5b9250929050565b600080600080600080600080600060a08a8c031215611a6e57600080fd5b893567ffffffffffffffff80821115611a8657600080fd5b611a928d838e01611a04565b909b50995060208c0135915080821115611aab57600080fd5b611ab78d838e01611a04565b909950975060408c0135915080821115611ad057600080fd5b611adc8d838e01611a04565b909750955060608c01359150611af182611941565b90935060808b01359080821115611b0757600080fd5b818c0191508c601f830112611b1b57600080fd5b813581811115611b2a57600080fd5b8d6020828501011115611b3c57600080fd5b6020830194508093505050509295985092959850929598565b600060208284031215611b6757600080fd5b8135610fbf81611941565b815151815261018081016020830151611b9660208401826001600160801b03169052565b506040830151611bb160408401826001600160801b03169052565b506060830151611bcc60608401826001600160801b03169052565b506080830151611be760808401826001600160801b03169052565b5060a0830151611c0260a08401826001600160801b03169052565b5060c0830151611c1b60c084018264ffffffffff169052565b5060e0830151611c3660e08401826001600160a01b03169052565b50610100838101516001600160a01b03908116918401919091526101208085015182169084015261014080850151909116908301526101609283015160ff16929091019190915290565b600080600060608486031215611c9557600080fd5b8335611ca081611941565b92506020840135611cb081611941565b929592945050506040919091013590565b634e487b7160e01b600052601160045260246000fd5b600060018201611ce957611ce9611cc1565b5060010190565b60008060008060008060c08789031215611d0957600080fd5b865195506020870151945060408701519350606087015192506080870151915060a087015190509295509295509295565b600060208284031215611d4c57600080fd5b5051919050565b80518015158114611d6357600080fd5b919050565b6000806000806000806000806000806101408b8d031215611d8857600080fd5b8a51995060208b0151985060408b0151975060608b0151965060808b01519550611db460a08c01611d53565b9450611dc260c08c01611d53565b9350611dd060e08c01611d53565b9250611ddf6101008c01611d53565b9150611dee6101208c01611d53565b90509295989b9194979a5092959850565b600181815b80851115611e3a578160001904821115611e2057611e20611cc1565b80851615611e2d57918102915b93841c9390800290611e04565b509250929050565b600082611e51575060016102d2565b81611e5e575060006102d2565b8160018114611e745760028114611e7e57611e9a565b60019150506102d2565b60ff841115611e8f57611e8f611cc1565b50506001821b6102d2565b5060208310610133831016604e8410600b8410161715611ebd575081810a6102d2565b611ec78383611dff565b8060001904821115611edb57611edb611cc1565b029392505050565b6000610fbf8383611e42565b8051611d6381611941565b600060208284031215611f0c57600080fd5b8151610fbf81611941565b634e487b7160e01b600052603260045260246000fd5b634e487b7160e01b600052604160045260246000fd5b604051610180810167ffffffffffffffff81118282101715611f6757611f67611f2d565b60405290565b604051601f8201601f1916810167ffffffffffffffff81118282101715611f9657611f96611f2d565b604052919050565b600060208284031215611fb057600080fd5b6040516020810181811067ffffffffffffffff82111715611fd357611fd3611f2d565b6040529151825250919050565b80516001600160801b0381168114611d6357600080fd5b805164ffffffffff81168114611d6357600080fd5b805160ff81168114611d6357600080fd5b6000610180828403121561203057600080fd5b612038611f43565b6120428484611f9e565b815261205060208401611fe0565b602082015261206160408401611fe0565b604082015261207260608401611fe0565b606082015261208360808401611fe0565b608082015261209460a08401611fe0565b60a08201526120a560c08401611ff7565b60c08201526120b660e08401611eef565b60e08201526101006120c9818501611eef565b908201526101206120db848201611eef565b908201526101406120ed848201611eef565b908201526101606120ff84820161200c565b908201529392505050565b60008060008060008060008060006101208a8c03121561212957600080fd5b8951985060208a0151975060408a0151965060608a0151955060808a0151945060a08a0151935060c08a0151925061216360e08b01611ff7565b91506121726101008b01611d53565b90509295985092959850929598565b600081518084526020808501945080840160005b838110156121ba5781516001600160a01b031687529582019590820190600101612195565b509495945050505050565b600081518084526020808501945080840160005b838110156121ba578151875295820195908201906001016121d9565b600060018060a01b03808a168352602060e08185015261221860e085018b612181565b848103604086015261222a818b6121c5565b9050848103606086015261223e818a6121c5565b92881660808601525083820360a085015285518083529160005b83811015612273578781018301518282018401528201612258565b506000818401830152601f909201601f191690910101905061229b60c083018461ffff169052565b98975050505050505050565b6000602082840312156122b957600080fd5b610fbf82611d53565b808201808211156102d2576102d2611cc1565b85815284602082015260a0604082015260006122f460a0830186612181565b6001600160a01b0394909416606083015250608001529392505050565b6000602080838503121561232457600080fd5b825167ffffffffffffffff8082111561233c57600080fd5b818501915085601f83011261235057600080fd5b81518181111561236257612362611f2d565b8060051b9150612373848301611f6d565b818152918301840191848101908884111561238d57600080fd5b938501935b8385101561229b57845182529385019390850190612392565b818103818111156102d2576102d2611cc1565b80820281158282048414176102d2576102d2611cc1565b6000826123f257634e487b7160e01b600052601260045260246000fd5b50049056fea2646970667358221220ad18533828013ee1377101d3d76ea4251b959483d499c32fa33a51b6d9f66dcf64736f6c63430008110033",
  "devdoc": {
    "kind": "dev",
    "methods": {},
    "version": 1
  },
  "userdoc": {
    "kind": "user",
    "methods": {},
    "version": 1
  },
  "storageLayout": {
    "storage": [],
    "types": null
  }
}