{
  "address": "0xF36B780F1F4C74e34a737636632B3Ead80b94943",
  "abi": [
    {
      "inputs": [],
      "stateMutability": "nonpayable",
      "type": "constructor"
    },
    {
      "anonymous": false,
      "inputs": [
        {
          "indexed": true,
          "internalType": "bytes32",
          "name": "id",
          "type": "bytes32"
        }
      ],
      "name": "ChainlinkCancelled",
      "type": "event"
    },
    {
      "anonymous": false,
      "inputs": [
        {
          "indexed": true,
          "internalType": "bytes32",
          "name": "id",
          "type": "bytes32"
        }
      ],
      "name": "ChainlinkFulfilled",
      "type": "event"
    },
    {
      "anonymous": false,
      "inputs": [
        {
          "indexed": true,
          "internalType": "bytes32",
          "name": "id",
          "type": "bytes32"
        }
      ],
      "name": "ChainlinkRequested",
      "type": "event"
    },
    {
      "anonymous": false,
      "inputs": [
        {
          "indexed": true,
          "internalType": "address",
          "name": "from",
          "type": "address"
        },
        {
          "indexed": true,
          "internalType": "address",
          "name": "to",
          "type": "address"
        }
      ],
      "name": "OwnershipTransferRequested",
      "type": "event"
    },
    {
      "anonymous": false,
      "inputs": [
        {
          "indexed": true,
          "internalType": "address",
          "name": "from",
          "type": "address"
        },
        {
          "indexed": true,
          "internalType": "address",
          "name": "to",
          "type": "address"
        }
      ],
      "name": "OwnershipTransferred",
      "type": "event"
    },
    {
      "anonymous": false,
      "inputs": [
        {
          "indexed": true,
          "internalType": "bytes32",
          "name": "requestId",
          "type": "bytes32"
        },
        {
          "indexed": false,
          "internalType": "uint256",
          "name": "volume",
          "type": "uint256"
        }
      ],
      "name": "RequestVolume",
      "type": "event"
    },
    {
      "inputs": [],
      "name": "acceptOwnership",
      "outputs": [],
      "stateMutability": "nonpayable",
      "type": "function"
    },
    {
      "inputs": [
        {
          "internalType": "bytes32",
          "name": "_requestId",
          "type": "bytes32"
        },
        {
          "internalType": "uint256",
          "name": "_volume",
          "type": "uint256"
        }
      ],
      "name": "fulfill",
      "outputs": [],
      "stateMutability": "nonpayable",
      "type": "function"
    },
    {
      "inputs": [],
      "name": "getVolume",
      "outputs": [
        {
          "internalType": "uint256",
          "name": "",
          "type": "uint256"
        }
      ],
      "stateMutability": "view",
      "type": "function"
    },
    {
      "inputs": [],
      "name": "owner",
      "outputs": [
        {
          "internalType": "address",
          "name": "",
          "type": "address"
        }
      ],
      "stateMutability": "view",
      "type": "function"
    },
    {
      "inputs": [],
      "name": "requestVolumeData",
      "outputs": [
        {
          "internalType": "bytes32",
          "name": "requestId",
          "type": "bytes32"
        }
      ],
      "stateMutability": "nonpayable",
      "type": "function"
    },
    {
      "inputs": [
        {
          "internalType": "address",
          "name": "to",
          "type": "address"
        }
      ],
      "name": "transferOwnership",
      "outputs": [],
      "stateMutability": "nonpayable",
      "type": "function"
    },
    {
      "inputs": [],
      "name": "volume",
      "outputs": [
        {
          "internalType": "uint256",
          "name": "",
          "type": "uint256"
        }
      ],
      "stateMutability": "view",
      "type": "function"
    },
    {
      "inputs": [],
      "name": "withdrawLink",
      "outputs": [],
      "stateMutability": "nonpayable",
      "type": "function"
    }
  ],
  "transactionHash": "0x497d1abc7596ba946105fe336ec27e055b3f9a45f19dccdad066cf6e7b8aa890",
  "args": [],
  "numDeployments": 1,
  "solcInputHash": "7f702b7df968db125eb9c78b54d17fc4",
  "bytecode": "0x608060405260016004553480156200001657600080fd5b5033806000816200006e5760405162461bcd60e51b815260206004820152601860248201527f43616e6e6f7420736574206f776e657220746f207a65726f000000000000000060448201526064015b60405180910390fd5b600680546001600160a01b0319166001600160a01b0384811691909117909155811615620000a157620000a1816200013f565b505050620000c973779877a7b0d9e8603169ddbd7836e478b4624789620001eb60201b60201c565b600380546001600160a01b031916736090149792daaee9d1d568c9f9a6f6b46aa29efd1790557f6361393833363663633733313439353762386330313263373266303561656562600955600a6200012a670de0b6b3a764000060016200020d565b62000136919062000239565b600a556200025c565b336001600160a01b03821603620001995760405162461bcd60e51b815260206004820152601760248201527f43616e6e6f74207472616e7366657220746f2073656c66000000000000000000604482015260640162000065565b600780546001600160a01b0319166001600160a01b03838116918217909255600654604051919216907fed8889f560326eb138920d842192f0eb3dd22b4f139c87a2c57538e05bae127890600090a350565b600280546001600160a01b0319166001600160a01b0392909216919091179055565b80820281158282048414176200023357634e487b7160e01b600052601160045260246000fd5b92915050565b6000826200025757634e487b7160e01b600052601260045260246000fd5b500490565b611149806200026c6000396000f3fe608060405234801561001057600080fd5b50600436106100885760003560e01c80638dc654a21161005b5780638dc654a2146100e0578063c618a1e4146100e8578063c67bbc24146100f1578063f2fde38b146100f957600080fd5b80634357855e1461008d5780636021abac146100a257806379ba5097146100bd5780638da5cb5b146100c5575b600080fd5b6100a061009b366004610ddc565b61010c565b005b6100aa61020e565b6040519081526020015b60405180910390f35b6100a0610312565b6006546040516001600160a01b0390911681526020016100b4565b6100a06103c0565b6100aa60085481565b6008546100aa565b6100a0610107366004610dfe565b610504565b60008281526005602052604090205482906001600160a01b0316331461018a5760405162461bcd60e51b815260206004820152602860248201527f536f75726365206d75737420626520746865206f7261636c65206f6620746865604482015267081c995c5d595cdd60c21b60648201526084015b60405180910390fd5b60008181526005602052604080822080546001600160a01b03191690555182917f7cc135e0cebb02c3480ae5d74d377283180a2601f8f644edf7987b009316c63a91a2827f673b38182859a514d734bdfcb49d3a05c4a641dec9311d9894c9717bcb79af76836040516101ff91815260200190565b60405180910390a25060085550565b60008061022560095430634357855e60e01b610515565b90506102676040518060400160405280600381526020016219d95d60ea1b8152506040518060800160405280604981526020016110cb6049913983919061053a565b6102cd604051806040016040528060048152602001630e0c2e8d60e31b8152506040518060400160405280601881526020017f5241572c4554482c5553442c564f4c554d453234484f555200000000000000008152508361053a9092919063ffffffff16565b60408051808201909152600581526474696d657360d81b6020820152670de0b6b3a7640000906102ff9083908361055d565b61030b82600a5461057b565b9250505090565b6007546001600160a01b031633146103655760405162461bcd60e51b815260206004820152601660248201527526bab9ba10313290383937b837b9b2b21037bbb732b960511b6044820152606401610181565b600680546001600160a01b0319808216339081179093556007805490911690556040516001600160a01b03909116919082907f8be0079c531659141344cd1fd0a4f28419497f9722a3daafe3b4186f6b6457e090600090a350565b6103c861059e565b60006103dc6002546001600160a01b031690565b6040516370a0823160e01b81523060048201529091506001600160a01b0382169063a9059cbb90339083906370a0823190602401602060405180830381865afa15801561042d573d6000803e3d6000fd5b505050506040513d601f19601f820116820180604052508101906104519190610e2e565b6040516001600160e01b031960e085901b1681526001600160a01b03909216600483015260248201526044016020604051808303816000875af115801561049c573d6000803e3d6000fd5b505050506040513d601f19601f820116820180604052508101906104c09190610e47565b6105015760405162461bcd60e51b81526020600482015260126024820152712ab730b13632903a37903a3930b739b332b960711b6044820152606401610181565b50565b61050c61059e565b610501816105f3565b61051d610da1565b610525610da1565b6105318186868661069d565b95945050505050565b608083015161054990836106e3565b608083015161055890826106e3565b505050565b608083015161056c90836106e3565b608083015161055890826106fa565b600354600090610595906001600160a01b0316848461075e565b90505b92915050565b6006546001600160a01b031633146105f15760405162461bcd60e51b815260206004820152601660248201527527b7363c9031b0b63630b1363290313c9037bbb732b960511b6044820152606401610181565b565b336001600160a01b0382160361064b5760405162461bcd60e51b815260206004820152601760248201527f43616e6e6f74207472616e7366657220746f2073656c660000000000000000006044820152606401610181565b600780546001600160a01b0319166001600160a01b03838116918217909255600654604051919216907fed8889f560326eb138920d842192f0eb3dd22b4f139c87a2c57538e05bae127890600090a350565b6106a5610da1565b6106b585608001516101006107f1565b50508284526001600160a01b03821660208501526001600160e01b031981166040850152835b949350505050565b6106f08260038351610856565b610558828261096b565b67ffffffffffffffff19811215610719576107158282610992565b5050565b67ffffffffffffffff8113156107335761071582826109d4565b600081126107475761071582600083610856565b61071582600161075984600019610e7f565b610856565b60045460009061076f816001610ea6565b600455835160408086015160808701515191516000936320214ca360e11b936107a79386938493923092918a91600191602401610eff565b60408051601f198184030181529190526020810180516001600160e01b03166001600160e01b03199093169290921790915290506107e7868386846109f7565b9695505050505050565b604080518082019091526060815260006020820152610811602083610f67565b1561083957610821602083610f67565b61082c906020610f89565b6108369083610ea6565b91505b506020828101829052604080518085526000815290920101905290565b60178167ffffffffffffffff16116108815761087b8360e0600585901b168317610b55565b50505050565b60ff8167ffffffffffffffff16116108bf576108a8836018611fe0600586901b1617610b55565b5061087b8367ffffffffffffffff83166001610b7a565b61ffff8167ffffffffffffffff16116108fe576108e7836019611fe0600586901b1617610b55565b5061087b8367ffffffffffffffff83166002610b7a565b63ffffffff8167ffffffffffffffff161161093f5761092883601a611fe0600586901b1617610b55565b5061087b8367ffffffffffffffff83166004610b7a565b61095483601b611fe0600586901b1617610b55565b5061087b8367ffffffffffffffff83166008610b7a565b60408051808201909152606081526000602082015261059583846000015151848551610ba0565b61099d8260c3610b55565b50610715826109ae83600019610e7f565b6040516020016109c091815260200190565b604051602081830303815290604052610c8a565b6109df8260c2610b55565b5061071582826040516020016109c091815260200190565b6040516bffffffffffffffffffffffff193060601b1660208201526034810184905260009060540160408051808303601f1901815282825280516020918201206000818152600590925291812080546001600160a01b0319166001600160a01b038a1617905590925082917fb5e6e01e79f91267dc17b4e6314d5d4d03593d2ceee0fbb452b750bd70ea5af99190a2600254604051630200057560e51b81526001600160a01b0390911690634000aea090610aba90889087908790600401610f9c565b6020604051808303816000875af1158015610ad9573d6000803e3d6000fd5b505050506040513d601f19601f82011682018060405250810190610afd9190610e47565b6106db5760405162461bcd60e51b815260206004820152602360248201527f756e61626c6520746f207472616e73666572416e6443616c6c20746f206f7261604482015262636c6560e81b6064820152608401610181565b6040805180820190915260608152600060208201526105958384600001515184610c97565b6040805180820190915260608152600060208201526106db848560000151518585610cf2565b6040805180820190915260608152600060208201528251821115610bc357600080fd5b6020850151610bd28386610ea6565b1115610c0557610c0585610bf587602001518786610bf09190610ea6565b610d73565b610c00906002610fc3565b610d8a565b600080865180518760208301019350808887011115610c245787860182525b505050602084015b60208410610c645780518252610c43602083610ea6565b9150610c50602082610ea6565b9050610c5d602085610f89565b9350610c2c565b51815160001960208690036101000a019081169019919091161790525083949350505050565b6106f08260028351610856565b60408051808201909152606081526000602082015283602001518310610ccc57610ccc8485602001516002610c009190610fc3565b8351805160208583010184815350808503610ce8576001810182525b5093949350505050565b6040805180820190915260608152600060208201526020850151610d168584610ea6565b1115610d2a57610d2a85610bf58685610ea6565b60006001610d3a846101006110be565b610d449190610f89565b9050855183868201018583198251161781525080518487011115610d685783860181525b509495945050505050565b600081831115610d84575081610598565b50919050565b8151610d9683836107f1565b5061087b838261096b565b6040805160a0810182526000808252602080830182905282840182905260608084018390528451808601909552845283015290608082015290565b60008060408385031215610def57600080fd5b50508035926020909101359150565b600060208284031215610e1057600080fd5b81356001600160a01b0381168114610e2757600080fd5b9392505050565b600060208284031215610e4057600080fd5b5051919050565b600060208284031215610e5957600080fd5b81518015158114610e2757600080fd5b634e487b7160e01b600052601160045260246000fd5b8181036000831280158383131683831282161715610e9f57610e9f610e69565b5092915050565b8082018082111561059857610598610e69565b6000815180845260005b81811015610edf57602081850181015186830182015201610ec3565b506000602082860101526020601f19601f83011685010191505092915050565b6001600160a01b0389811682526020820189905260408201889052861660608201526001600160e01b03198516608082015260a0810184905260c0810183905261010060e08201819052600090610f5883820185610eb9565b9b9a5050505050505050505050565b600082610f8457634e487b7160e01b600052601260045260246000fd5b500690565b8181038181111561059857610598610e69565b60018060a01b03841681528260208201526060604082015260006105316060830184610eb9565b808202811582820484141761059857610598610e69565b600181815b80851115611015578160001904821115610ffb57610ffb610e69565b8085161561100857918102915b93841c9390800290610fdf565b509250929050565b60008261102c57506001610598565b8161103957506000610598565b816001811461104f576002811461105957611075565b6001915050610598565b60ff84111561106a5761106a610e69565b50506001821b610598565b5060208310610133831016604e8410600b8410161715611098575081810a610598565b6110a28383610fda565b80600019048211156110b6576110b6610e69565b029392505050565b6000610595838361101d56fe68747470733a2f2f6d696e2d6170692e63727970746f636f6d706172652e636f6d2f646174612f70726963656d756c746966756c6c3f6673796d733d455448267473796d733d555344a264697066735822122032ecf1f525a3005c5e5106a6eff3226eaaadd63214e37c481bc1602ac71211eb64736f6c63430008110033",
  "devdoc": {
    "kind": "dev",
    "methods": {},
    "version": 1
  },
  "userdoc": {
    "kind": "user",
    "methods": {
      "acceptOwnership()": {
        "notice": "Allows an ownership transfer to be completed by the recipient."
      },
      "constructor": {
        "notice": "Initialize the link token and target oracle Sepolia Testnet details: Link Token: 0x779877A7B0D9E8603169DdbD7836e478b4624789 Oracle: 0x6090149792dAAeE9D1D568c9f9a6F6B46AA29eFD (Chainlink DevRel) jobId: ca98366cc7314957b8c012c72f05aeeb"
      },
      "fulfill(bytes32,uint256)": {
        "notice": "Receive the response in the form of uint256"
      },
      "getVolume()": {
        "notice": "Create a Chainlink request to retrieve API response, find the target data, then multiply by 1000000000000000000 (to remove decimal places from data)."
      },
      "owner()": {
        "notice": "Get the current owner"
      },
      "transferOwnership(address)": {
        "notice": "Allows an owner to begin transferring ownership to a new address."
      },
      "withdrawLink()": {
        "notice": "Allow withdraw of Link tokens from the contract"
      }
    },
    "notice": "THIS IS AN EXAMPLE CONTRACT WHICH USES HARDCODED VALUES FOR CLARITY. THIS EXAMPLE USES UN-AUDITED CODE. DO NOT USE THIS CODE IN PRODUCTION.",
    "version": 1
  },
  "storageLayout": {
    "storage": [
      {
        "astId": 501,
        "contract": "contracts/APIConsumer.sol:APIConsumer",
        "label": "s_ens",
        "offset": 0,
        "slot": "0",
        "type": "t_contract(ENSInterface)1158"
      },
      {
        "astId": 503,
        "contract": "contracts/APIConsumer.sol:APIConsumer",
        "label": "s_ensNode",
        "offset": 0,
        "slot": "1",
        "type": "t_bytes32"
      },
      {
        "astId": 506,
        "contract": "contracts/APIConsumer.sol:APIConsumer",
        "label": "s_link",
        "offset": 0,
        "slot": "2",
        "type": "t_contract(LinkTokenInterface)1558"
      },
      {
        "astId": 509,
        "contract": "contracts/APIConsumer.sol:APIConsumer",
        "label": "s_oracle",
        "offset": 0,
        "slot": "3",
        "type": "t_contract(OperatorInterface)1223"
      },
      {
        "astId": 512,
        "contract": "contracts/APIConsumer.sol:APIConsumer",
        "label": "s_requestCount",
        "offset": 0,
        "slot": "4",
        "type": "t_uint256"
      },
      {
        "astId": 516,
        "contract": "contracts/APIConsumer.sol:APIConsumer",
        "label": "s_pendingRequests",
        "offset": 0,
        "slot": "5",
        "type": "t_mapping(t_bytes32,t_address)"
      },
      {
        "astId": 1293,
        "contract": "contracts/APIConsumer.sol:APIConsumer",
        "label": "s_owner",
        "offset": 0,
        "slot": "6",
        "type": "t_address"
      },
      {
        "astId": 1295,
        "contract": "contracts/APIConsumer.sol:APIConsumer",
        "label": "s_pendingOwner",
        "offset": 0,
        "slot": "7",
        "type": "t_address"
      },
      {
        "astId": 19,
        "contract": "contracts/APIConsumer.sol:APIConsumer",
        "label": "volume",
        "offset": 0,
        "slot": "8",
        "type": "t_uint256"
      },
      {
        "astId": 21,
        "contract": "contracts/APIConsumer.sol:APIConsumer",
        "label": "jobId",
        "offset": 0,
        "slot": "9",
        "type": "t_bytes32"
      },
      {
        "astId": 23,
        "contract": "contracts/APIConsumer.sol:APIConsumer",
        "label": "fee",
        "offset": 0,
        "slot": "10",
        "type": "t_uint256"
      }
    ],
    "types": {
      "t_address": {
        "encoding": "inplace",
        "label": "address",
        "numberOfBytes": "20"
      },
      "t_bytes32": {
        "encoding": "inplace",
        "label": "bytes32",
        "numberOfBytes": "32"
      },
      "t_contract(ENSInterface)1158": {
        "encoding": "inplace",
        "label": "contract ENSInterface",
        "numberOfBytes": "20"
      },
      "t_contract(LinkTokenInterface)1558": {
        "encoding": "inplace",
        "label": "contract LinkTokenInterface",
        "numberOfBytes": "20"
      },
      "t_contract(OperatorInterface)1223": {
        "encoding": "inplace",
        "label": "contract OperatorInterface",
        "numberOfBytes": "20"
      },
      "t_mapping(t_bytes32,t_address)": {
        "encoding": "mapping",
        "key": "t_bytes32",
        "label": "mapping(bytes32 => address)",
        "numberOfBytes": "32",
        "value": "t_address"
      },
      "t_uint256": {
        "encoding": "inplace",
        "label": "uint256",
        "numberOfBytes": "32"
      }
    }
  }
}