{
  "address": "0x2f8eAaad46F0Ba526c01262B7C456b2EE015a6B2",
  "abi": [
    {
      "inputs": [],
      "stateMutability": "nonpayable",
      "type": "constructor"
    },
    {
      "anonymous": false,
      "inputs": [
        {
          "indexed": true,
          "internalType": "address",
          "name": "from",
          "type": "address"
        },
        {
          "indexed": false,
          "internalType": "uint256",
          "name": "timestamp",
          "type": "uint256"
        },
        {
          "indexed": false,
          "internalType": "string",
          "name": "name",
          "type": "string"
        },
        {
          "indexed": false,
          "internalType": "string",
          "name": "message",
          "type": "string"
        }
      ],
      "name": "NewMemo",
      "type": "event"
    },
    {
      "inputs": [
        {
          "internalType": "string",
          "name": "_name",
          "type": "string"
        },
        {
          "internalType": "string",
          "name": "_message",
          "type": "string"
        }
      ],
      "name": "buyCoffee",
      "outputs": [],
      "stateMutability": "payable",
      "type": "function"
    },
    {
      "inputs": [],
      "name": "getMemos",
      "outputs": [
        {
          "components": [
            {
              "internalType": "address",
              "name": "from",
              "type": "address"
            },
            {
              "internalType": "uint256",
              "name": "timestamp",
              "type": "uint256"
            },
            {
              "internalType": "string",
              "name": "name",
              "type": "string"
            },
            {
              "internalType": "string",
              "name": "message",
              "type": "string"
            }
          ],
          "internalType": "struct BuyMeACoffee.Memo[]",
          "name": "",
          "type": "tuple[]"
        }
      ],
      "stateMutability": "view",
      "type": "function"
    },
    {
      "inputs": [],
      "name": "withdrawTips",
      "outputs": [],
      "stateMutability": "nonpayable",
      "type": "function"
    }
  ],
  "transactionHash": "0x7e5ff71b55022c34173ec6a611c61ea496a25032eadaaa03d162d5a4565faab4",
  "args": [],
  "numDeployments": 1,
  "solcInputHash": "c5a1face29500779764abd1b09498218",
  "bytecode": "0x608060405234801561001057600080fd5b50600080546001600160a01b03191633179055610795806100326000396000f3fe6080604052600436106100345760003560e01c8063204206e1146100395780633aaa74b21461004e578063865c517214610063575b600080fd5b61004c610047366004610490565b61008e565b005b34801561005a57600080fd5b5061004c610216565b34801561006f57600080fd5b5061007861024a565b604051610085919061053a565b60405180910390f35b600034116100e25760405162461bcd60e51b815260206004820152601a60248201527f63616e27742062757920636f6666656520666f72206672656521000000000000604482015260640160405180910390fd5b6040805160808101825233815242602082019081529181018481526060820184905260018054808201825560009190915282517fb10e2d527612073b26eecdfd717e6a320cf44b4afac2b0732d9fcbe2b7fa0cf6600490920291820180546001600160a01b0319166001600160a01b0390921691909117815593517fb10e2d527612073b26eecdfd717e6a320cf44b4afac2b0732d9fcbe2b7fa0cf782015590519192917fb10e2d527612073b26eecdfd717e6a320cf44b4afac2b0732d9fcbe2b7fa0cf8909101906101b5908261066a565b50606082015160038201906101ca908261066a565b505050336001600160a01b03167fc56140e05f516509ae28110e0f72e17558a7561630dad2647c3ae87d986e365c42848460405161020a9392919061072a565b60405180910390a25050565b600080546040516001600160a01b03909116914780156108fc02929091818181858888f1935050505061024857600080fd5b565b60606001805480602002602001604051908101604052809291908181526020016000905b828210156103e4576000848152602090819020604080516080810182526004860290920180546001600160a01b03168352600181015493830193909352600283018054929392918401916102c1906105e1565b80601f01602080910402602001604051908101604052809291908181526020018280546102ed906105e1565b801561033a5780601f1061030f5761010080835404028352916020019161033a565b820191906000526020600020905b81548152906001019060200180831161031d57829003601f168201915b50505050508152602001600382018054610353906105e1565b80601f016020809104026020016040519081016040528092919081815260200182805461037f906105e1565b80156103cc5780601f106103a1576101008083540402835291602001916103cc565b820191906000526020600020905b8154815290600101906020018083116103af57829003601f168201915b5050505050815250508152602001906001019061026e565b50505050905090565b634e487b7160e01b600052604160045260246000fd5b600082601f83011261041457600080fd5b813567ffffffffffffffff8082111561042f5761042f6103ed565b604051601f8301601f19908116603f01168101908282118183101715610457576104576103ed565b8160405283815286602085880101111561047057600080fd5b836020870160208301376000602085830101528094505050505092915050565b600080604083850312156104a357600080fd5b823567ffffffffffffffff808211156104bb57600080fd5b6104c786838701610403565b935060208501359150808211156104dd57600080fd5b506104ea85828601610403565b9150509250929050565b6000815180845260005b8181101561051a576020818501810151868301820152016104fe565b506000602082860101526020601f19601f83011685010191505092915050565b60006020808301818452808551808352604092508286019150828160051b87010184880160005b838110156105d357888303603f19018552815180516001600160a01b031684528781015188850152868101516080888601819052906105a2828701826104f4565b915050606080830151925085820381870152506105bf81836104f4565b968901969450505090860190600101610561565b509098975050505050505050565b600181811c908216806105f557607f821691505b60208210810361061557634e487b7160e01b600052602260045260246000fd5b50919050565b601f82111561066557600081815260208120601f850160051c810160208610156106425750805b601f850160051c820191505b818110156106615782815560010161064e565b5050505b505050565b815167ffffffffffffffff811115610684576106846103ed565b6106988161069284546105e1565b8461061b565b602080601f8311600181146106cd57600084156106b55750858301515b600019600386901b1c1916600185901b178555610661565b600085815260208120601f198616915b828110156106fc578886015182559484019460019091019084016106dd565b508582101561071a5787850151600019600388901b60f8161c191681555b5050505050600190811b01905550565b83815260606020820152600061074360608301856104f4565b828103604084015261075581856104f4565b969550505050505056fea2646970667358221220f70385917a3e06b29dcad699c650705b7609a1b3c6cf759cc0cea74b6b8667be64736f6c63430008110033",
  "devdoc": {
    "author": "BuidlGuidl",
    "kind": "dev",
    "methods": {
      "buyCoffee(string,string)": {
        "details": "  ETH    ",
        "params": {
          "_message": "  ",
          "_name": " "
        }
      },
      "getMemos()": {
        "details": "  memos "
      },
      "withdrawTips()": {
        "details": "     "
      }
    },
    "version": 1
  },
  "userdoc": {
    "kind": "user",
    "methods": {},
    "notice": "A smart contract that allows changing a state variable of the contract and tracking the changes It also allows the owner to withdraw the Ether in the contract",
    "version": 1
  },
  "storageLayout": {
    "storage": [
      {
        "astId": 24,
        "contract": "contracts/BuyMeACoffee.sol:BuyMeACoffee",
        "label": "owner",
        "offset": 0,
        "slot": "0",
        "type": "t_address_payable"
      },
      {
        "astId": 28,
        "contract": "contracts/BuyMeACoffee.sol:BuyMeACoffee",
        "label": "memos",
        "offset": 0,
        "slot": "1",
        "type": "t_array(t_struct(Memo)22_storage)dyn_storage"
      }
    ],
    "types": {
      "t_address": {
        "encoding": "inplace",
        "label": "address",
        "numberOfBytes": "20"
      },
      "t_address_payable": {
        "encoding": "inplace",
        "label": "address payable",
        "numberOfBytes": "20"
      },
      "t_array(t_struct(Memo)22_storage)dyn_storage": {
        "base": "t_struct(Memo)22_storage",
        "encoding": "dynamic_array",
        "label": "struct BuyMeACoffee.Memo[]",
        "numberOfBytes": "32"
      },
      "t_string_storage": {
        "encoding": "bytes",
        "label": "string",
        "numberOfBytes": "32"
      },
      "t_struct(Memo)22_storage": {
        "encoding": "inplace",
        "label": "struct BuyMeACoffee.Memo",
        "members": [
          {
            "astId": 15,
            "contract": "contracts/BuyMeACoffee.sol:BuyMeACoffee",
            "label": "from",
            "offset": 0,
            "slot": "0",
            "type": "t_address"
          },
          {
            "astId": 17,
            "contract": "contracts/BuyMeACoffee.sol:BuyMeACoffee",
            "label": "timestamp",
            "offset": 0,
            "slot": "1",
            "type": "t_uint256"
          },
          {
            "astId": 19,
            "contract": "contracts/BuyMeACoffee.sol:BuyMeACoffee",
            "label": "name",
            "offset": 0,
            "slot": "2",
            "type": "t_string_storage"
          },
          {
            "astId": 21,
            "contract": "contracts/BuyMeACoffee.sol:BuyMeACoffee",
            "label": "message",
            "offset": 0,
            "slot": "3",
            "type": "t_string_storage"
          }
        ],
        "numberOfBytes": "128"
      },
      "t_uint256": {
        "encoding": "inplace",
        "label": "uint256",
        "numberOfBytes": "32"
      }
    }
  }
}