{
  "address": "0xdc22EDA44b84270a006E6B87852a87f78280E6BD",
  "abi": [
    {
      "inputs": [],
      "stateMutability": "nonpayable",
      "type": "constructor"
    },
    {
      "anonymous": false,
      "inputs": [
        {
          "indexed": true,
          "internalType": "bytes32",
          "name": "id",
          "type": "bytes32"
        }
      ],
      "name": "ChainlinkCancelled",
      "type": "event"
    },
    {
      "anonymous": false,
      "inputs": [
        {
          "indexed": true,
          "internalType": "bytes32",
          "name": "id",
          "type": "bytes32"
        }
      ],
      "name": "ChainlinkFulfilled",
      "type": "event"
    },
    {
      "anonymous": false,
      "inputs": [
        {
          "indexed": true,
          "internalType": "bytes32",
          "name": "id",
          "type": "bytes32"
        }
      ],
      "name": "ChainlinkRequested",
      "type": "event"
    },
    {
      "anonymous": false,
      "inputs": [
        {
          "indexed": true,
          "internalType": "address",
          "name": "from",
          "type": "address"
        },
        {
          "indexed": true,
          "internalType": "address",
          "name": "to",
          "type": "address"
        }
      ],
      "name": "OwnershipTransferRequested",
      "type": "event"
    },
    {
      "anonymous": false,
      "inputs": [
        {
          "indexed": true,
          "internalType": "address",
          "name": "from",
          "type": "address"
        },
        {
          "indexed": true,
          "internalType": "address",
          "name": "to",
          "type": "address"
        }
      ],
      "name": "OwnershipTransferred",
      "type": "event"
    },
    {
      "anonymous": false,
      "inputs": [
        {
          "indexed": true,
          "internalType": "bytes32",
          "name": "requestId",
          "type": "bytes32"
        },
        {
          "indexed": false,
          "internalType": "uint256",
          "name": "price",
          "type": "uint256"
        }
      ],
      "name": "RequestedEthereumPrice",
      "type": "event"
    },
    {
      "inputs": [],
      "name": "RequestEthereumPrice",
      "outputs": [
        {
          "internalType": "bytes32",
          "name": "requestId",
          "type": "bytes32"
        }
      ],
      "stateMutability": "nonpayable",
      "type": "function"
    },
    {
      "inputs": [],
      "name": "acceptOwnership",
      "outputs": [],
      "stateMutability": "nonpayable",
      "type": "function"
    },
    {
      "inputs": [],
      "name": "ethereumPrice",
      "outputs": [
        {
          "internalType": "uint256",
          "name": "",
          "type": "uint256"
        }
      ],
      "stateMutability": "view",
      "type": "function"
    },
    {
      "inputs": [
        {
          "internalType": "bytes32",
          "name": "_requestId",
          "type": "bytes32"
        },
        {
          "internalType": "uint256",
          "name": "_price",
          "type": "uint256"
        }
      ],
      "name": "fulfillEthereumPrice",
      "outputs": [],
      "stateMutability": "nonpayable",
      "type": "function"
    },
    {
      "inputs": [],
      "name": "owner",
      "outputs": [
        {
          "internalType": "address",
          "name": "",
          "type": "address"
        }
      ],
      "stateMutability": "view",
      "type": "function"
    },
    {
      "inputs": [
        {
          "internalType": "address",
          "name": "to",
          "type": "address"
        }
      ],
      "name": "transferOwnership",
      "outputs": [],
      "stateMutability": "nonpayable",
      "type": "function"
    },
    {
      "inputs": [],
      "name": "withdrawLink",
      "outputs": [],
      "stateMutability": "nonpayable",
      "type": "function"
    }
  ],
  "transactionHash": "0x42e3ce6ac822108175d84d63d0f9a177ba968cbf00937a895abbd6525b8a327e",
  "args": [],
  "numDeployments": 4,
  "solcInputHash": "671b65c468e59a61e8333da18e9d151a",
  "bytecode": "0x608060405260016004553480156200001657600080fd5b5033806000816200006e5760405162461bcd60e51b815260206004820152601860248201527f43616e6e6f7420736574206f776e657220746f207a65726f000000000000000060448201526064015b60405180910390fd5b600680546001600160a01b0319166001600160a01b0384811691909117909155811615620000a157620000a1816200013f565b505050620000c973779877a7b0d9e8603169ddbd7836e478b4624789620001eb60201b60201c565b600380546001600160a01b031916736090149792daaee9d1d568c9f9a6f6b46aa29efd1790557f6361393833363663633733313439353762386330313263373266303561656562600855600a6200012a670de0b6b3a764000060016200020d565b62000136919062000239565b6009556200025c565b336001600160a01b03821603620001995760405162461bcd60e51b815260206004820152601760248201527f43616e6e6f74207472616e7366657220746f2073656c66000000000000000000604482015260640162000065565b600780546001600160a01b0319166001600160a01b03838116918217909255600654604051919216907fed8889f560326eb138920d842192f0eb3dd22b4f139c87a2c57538e05bae127890600090a350565b600280546001600160a01b0319166001600160a01b0392909216919091179055565b80820281158282048414176200023357634e487b7160e01b600052601160045260246000fd5b92915050565b6000826200025757634e487b7160e01b600052601260045260246000fd5b500490565b611128806200026c6000396000f3fe608060405234801561001057600080fd5b506004361061007d5760003560e01c80638dc654a21161005b5780638dc654a2146100c357806392cdaaf3146100cb578063b3cea79a146100de578063f2fde38b146100e657600080fd5b806351aa01991461008257806379ba50971461009e5780638da5cb5b146100a8575b600080fd5b61008b600a5481565b6040519081526020015b60405180910390f35b6100a66100f9565b005b6006546040516001600160a01b039091168152602001610095565b6100a66101ac565b6100a66100d9366004610db8565b6102f0565b61008b6103ed565b6100a66100f4366004610dda565b6104e0565b6007546001600160a01b031633146101515760405162461bcd60e51b815260206004820152601660248201527526bab9ba10313290383937b837b9b2b21037bbb732b960511b60448201526064015b60405180910390fd5b600680546001600160a01b0319808216339081179093556007805490911690556040516001600160a01b03909116919082907f8be0079c531659141344cd1fd0a4f28419497f9722a3daafe3b4186f6b6457e090600090a350565b6101b46104f1565b60006101c86002546001600160a01b031690565b6040516370a0823160e01b81523060048201529091506001600160a01b0382169063a9059cbb90339083906370a0823190602401602060405180830381865afa158015610219573d6000803e3d6000fd5b505050506040513d601f19601f8201168201806040525081019061023d9190610e0a565b6040516001600160e01b031960e085901b1681526001600160a01b03909216600483015260248201526044016020604051808303816000875af1158015610288573d6000803e3d6000fd5b505050506040513d601f19601f820116820180604052508101906102ac9190610e23565b6102ed5760405162461bcd60e51b81526020600482015260126024820152712ab730b13632903a37903a3930b739b332b960711b6044820152606401610148565b50565b60008281526005602052604090205482906001600160a01b031633146103695760405162461bcd60e51b815260206004820152602860248201527f536f75726365206d75737420626520746865206f7261636c65206f6620746865604482015267081c995c5d595cdd60c21b6064820152608401610148565b60008181526005602052604080822080546001600160a01b03191690555182917f7cc135e0cebb02c3480ae5d74d377283180a2601f8f644edf7987b009316c63a91a2827f34bfe8f079763fe39d3433e7851a83b623196359b7b7029d86b786afd14ca51c836040516103de91815260200190565b60405180910390a250600a5550565b600080610404600854306392cdaaf360e01b610546565b90506104466040518060400160405280600381526020016219d95d60ea1b8152506040518060800160405280604c81526020016110a7604c913983919061056b565b61049b604051806040016040528060048152602001630e0c2e8d60e31b8152506040518060400160405280600c81526020016b195d1a195c995d5b4b1d5cd960a21b8152508361056b9092919063ffffffff16565b60408051808201909152600581526474696d657360d81b6020820152670de0b6b3a7640000906104cd9083908361058e565b6104d9826009546105ac565b9250505090565b6104e86104f1565b6102ed816105cf565b6006546001600160a01b031633146105445760405162461bcd60e51b815260206004820152601660248201527527b7363c9031b0b63630b1363290313c9037bbb732b960511b6044820152606401610148565b565b61054e610d7d565b610556610d7d565b61056281868686610679565b95945050505050565b608083015161057a90836106bf565b608083015161058990826106bf565b505050565b608083015161059d90836106bf565b608083015161058990826106d6565b6003546000906105c6906001600160a01b0316848461073a565b90505b92915050565b336001600160a01b038216036106275760405162461bcd60e51b815260206004820152601760248201527f43616e6e6f74207472616e7366657220746f2073656c660000000000000000006044820152606401610148565b600780546001600160a01b0319166001600160a01b03838116918217909255600654604051919216907fed8889f560326eb138920d842192f0eb3dd22b4f139c87a2c57538e05bae127890600090a350565b610681610d7d565b61069185608001516101006107cd565b50508284526001600160a01b03821660208501526001600160e01b031981166040850152835b949350505050565b6106cc8260038351610832565b6105898282610947565b67ffffffffffffffff198112156106f5576106f1828261096e565b5050565b67ffffffffffffffff81131561070f576106f182826109b0565b60008112610723576106f182600083610832565b6106f182600161073584600019610e5b565b610832565b60045460009061074b816001610e82565b600455835160408086015160808701515191516000936320214ca360e11b936107839386938493923092918a91600191602401610edb565b60408051601f198184030181529190526020810180516001600160e01b03166001600160e01b03199093169290921790915290506107c3868386846109d3565b9695505050505050565b6040805180820190915260608152600060208201526107ed602083610f43565b15610815576107fd602083610f43565b610808906020610f65565b6108129083610e82565b91505b506020828101829052604080518085526000815290920101905290565b60178167ffffffffffffffff161161085d576108578360e0600585901b168317610b31565b50505050565b60ff8167ffffffffffffffff161161089b57610884836018611fe0600586901b1617610b31565b506108578367ffffffffffffffff83166001610b56565b61ffff8167ffffffffffffffff16116108da576108c3836019611fe0600586901b1617610b31565b506108578367ffffffffffffffff83166002610b56565b63ffffffff8167ffffffffffffffff161161091b5761090483601a611fe0600586901b1617610b31565b506108578367ffffffffffffffff83166004610b56565b61093083601b611fe0600586901b1617610b31565b506108578367ffffffffffffffff83166008610b56565b6040805180820190915260608152600060208201526105c683846000015151848551610b7c565b6109798260c3610b31565b506106f18261098a83600019610e5b565b60405160200161099c91815260200190565b604051602081830303815290604052610c66565b6109bb8260c2610b31565b506106f1828260405160200161099c91815260200190565b6040516bffffffffffffffffffffffff193060601b1660208201526034810184905260009060540160408051808303601f1901815282825280516020918201206000818152600590925291812080546001600160a01b0319166001600160a01b038a1617905590925082917fb5e6e01e79f91267dc17b4e6314d5d4d03593d2ceee0fbb452b750bd70ea5af99190a2600254604051630200057560e51b81526001600160a01b0390911690634000aea090610a9690889087908790600401610f78565b6020604051808303816000875af1158015610ab5573d6000803e3d6000fd5b505050506040513d601f19601f82011682018060405250810190610ad99190610e23565b6106b75760405162461bcd60e51b815260206004820152602360248201527f756e61626c6520746f207472616e73666572416e6443616c6c20746f206f7261604482015262636c6560e81b6064820152608401610148565b6040805180820190915260608152600060208201526105c68384600001515184610c73565b6040805180820190915260608152600060208201526106b7848560000151518585610cce565b6040805180820190915260608152600060208201528251821115610b9f57600080fd5b6020850151610bae8386610e82565b1115610be157610be185610bd187602001518786610bcc9190610e82565b610d4f565b610bdc906002610f9f565b610d66565b600080865180518760208301019350808887011115610c005787860182525b505050602084015b60208410610c405780518252610c1f602083610e82565b9150610c2c602082610e82565b9050610c39602085610f65565b9350610c08565b51815160001960208690036101000a019081169019919091161790525083949350505050565b6106cc8260028351610832565b60408051808201909152606081526000602082015283602001518310610ca857610ca88485602001516002610bdc9190610f9f565b8351805160208583010184815350808503610cc4576001810182525b5093949350505050565b6040805180820190915260608152600060208201526020850151610cf28584610e82565b1115610d0657610d0685610bd18685610e82565b60006001610d168461010061109a565b610d209190610f65565b9050855183868201018583198251161781525080518487011115610d445783860181525b509495945050505050565b600081831115610d605750816105c9565b50919050565b8151610d7283836107cd565b506108578382610947565b6040805160a0810182526000808252602080830182905282840182905260608084018390528451808601909552845283015290608082015290565b60008060408385031215610dcb57600080fd5b50508035926020909101359150565b600060208284031215610dec57600080fd5b81356001600160a01b0381168114610e0357600080fd5b9392505050565b600060208284031215610e1c57600080fd5b5051919050565b600060208284031215610e3557600080fd5b81518015158114610e0357600080fd5b634e487b7160e01b600052601160045260246000fd5b8181036000831280158383131683831282161715610e7b57610e7b610e45565b5092915050565b808201808211156105c9576105c9610e45565b6000815180845260005b81811015610ebb57602081850181015186830182015201610e9f565b506000602082860101526020601f19601f83011685010191505092915050565b6001600160a01b0389811682526020820189905260408201889052861660608201526001600160e01b03198516608082015260a0810184905260c0810183905261010060e08201819052600090610f3483820185610e95565b9b9a5050505050505050505050565b600082610f6057634e487b7160e01b600052601260045260246000fd5b500690565b818103818111156105c9576105c9610e45565b60018060a01b03841681528260208201526060604082015260006105626060830184610e95565b80820281158282048414176105c9576105c9610e45565b600181815b80851115610ff1578160001904821115610fd757610fd7610e45565b80851615610fe457918102915b93841c9390800290610fbb565b509250929050565b600082611008575060016105c9565b81611015575060006105c9565b816001811461102b576002811461103557611051565b60019150506105c9565b60ff84111561104657611046610e45565b50506001821b6105c9565b5060208310610133831016604e8410600b8410161715611074575081810a6105c9565b61107e8383610fb6565b806000190482111561109257611092610e45565b029392505050565b60006105c68383610ff956fe68747470733a2f2f6170692e636f696e6765636b6f2e636f6d2f6170692f76332f73696d706c652f70726963653f6964733d657468657265756d2676735f63757272656e636965733d757364a2646970667358221220cebb52421a02daef6c5cf599033a3c8e94d5fc231df26065382068d318b8f0f864736f6c63430008130033",
  "devdoc": {
    "kind": "dev",
    "methods": {},
    "version": 1
  },
  "userdoc": {
    "kind": "user",
    "methods": {
      "acceptOwnership()": {
        "notice": "Allows an ownership transfer to be completed by the recipient."
      },
      "owner()": {
        "notice": "Get the current owner"
      },
      "transferOwnership(address)": {
        "notice": "Allows an owner to begin transferring ownership to a new address."
      }
    },
    "version": 1
  },
  "storageLayout": {
    "storage": [
      {
        "astId": 325,
        "contract": "contracts/CoinGeckoConsumer.sol:CoinGeckoConsumer",
        "label": "s_ens",
        "offset": 0,
        "slot": "0",
        "type": "t_contract(ENSInterface)982"
      },
      {
        "astId": 327,
        "contract": "contracts/CoinGeckoConsumer.sol:CoinGeckoConsumer",
        "label": "s_ensNode",
        "offset": 0,
        "slot": "1",
        "type": "t_bytes32"
      },
      {
        "astId": 330,
        "contract": "contracts/CoinGeckoConsumer.sol:CoinGeckoConsumer",
        "label": "s_link",
        "offset": 0,
        "slot": "2",
        "type": "t_contract(LinkTokenInterface)1382"
      },
      {
        "astId": 333,
        "contract": "contracts/CoinGeckoConsumer.sol:CoinGeckoConsumer",
        "label": "s_oracle",
        "offset": 0,
        "slot": "3",
        "type": "t_contract(OperatorInterface)1047"
      },
      {
        "astId": 336,
        "contract": "contracts/CoinGeckoConsumer.sol:CoinGeckoConsumer",
        "label": "s_requestCount",
        "offset": 0,
        "slot": "4",
        "type": "t_uint256"
      },
      {
        "astId": 340,
        "contract": "contracts/CoinGeckoConsumer.sol:CoinGeckoConsumer",
        "label": "s_pendingRequests",
        "offset": 0,
        "slot": "5",
        "type": "t_mapping(t_bytes32,t_address)"
      },
      {
        "astId": 1117,
        "contract": "contracts/CoinGeckoConsumer.sol:CoinGeckoConsumer",
        "label": "s_owner",
        "offset": 0,
        "slot": "6",
        "type": "t_address"
      },
      {
        "astId": 1119,
        "contract": "contracts/CoinGeckoConsumer.sol:CoinGeckoConsumer",
        "label": "s_pendingOwner",
        "offset": 0,
        "slot": "7",
        "type": "t_address"
      },
      {
        "astId": 2380,
        "contract": "contracts/CoinGeckoConsumer.sol:CoinGeckoConsumer",
        "label": "jobId",
        "offset": 0,
        "slot": "8",
        "type": "t_bytes32"
      },
      {
        "astId": 2382,
        "contract": "contracts/CoinGeckoConsumer.sol:CoinGeckoConsumer",
        "label": "fee",
        "offset": 0,
        "slot": "9",
        "type": "t_uint256"
      },
      {
        "astId": 2384,
        "contract": "contracts/CoinGeckoConsumer.sol:CoinGeckoConsumer",
        "label": "ethereumPrice",
        "offset": 0,
        "slot": "10",
        "type": "t_uint256"
      }
    ],
    "types": {
      "t_address": {
        "encoding": "inplace",
        "label": "address",
        "numberOfBytes": "20"
      },
      "t_bytes32": {
        "encoding": "inplace",
        "label": "bytes32",
        "numberOfBytes": "32"
      },
      "t_contract(ENSInterface)982": {
        "encoding": "inplace",
        "label": "contract ENSInterface",
        "numberOfBytes": "20"
      },
      "t_contract(LinkTokenInterface)1382": {
        "encoding": "inplace",
        "label": "contract LinkTokenInterface",
        "numberOfBytes": "20"
      },
      "t_contract(OperatorInterface)1047": {
        "encoding": "inplace",
        "label": "contract OperatorInterface",
        "numberOfBytes": "20"
      },
      "t_mapping(t_bytes32,t_address)": {
        "encoding": "mapping",
        "key": "t_bytes32",
        "label": "mapping(bytes32 => address)",
        "numberOfBytes": "32",
        "value": "t_address"
      },
      "t_uint256": {
        "encoding": "inplace",
        "label": "uint256",
        "numberOfBytes": "32"
      }
    }
  }
}