{
  "address": "0xd4127908c38663cBbcbCA47840c18190B8d67414",
  "abi": [
    {
      "inputs": [],
      "name": "getMinAmount",
      "outputs": [
        {
          "internalType": "uint256",
          "name": "",
          "type": "uint256"
        }
      ],
      "stateMutability": "view",
      "type": "function"
    },
    {
      "inputs": [],
      "name": "getOwner",
      "outputs": [
        {
          "internalType": "address",
          "name": "",
          "type": "address"
        }
      ],
      "stateMutability": "view",
      "type": "function"
    },
    {
      "inputs": [
        {
          "internalType": "uint256",
          "name": "_minAmount",
          "type": "uint256"
        }
      ],
      "name": "init",
      "outputs": [],
      "stateMutability": "nonpayable",
      "type": "function"
    }
  ],
  "transactionHash": "0x309494453eca6a3de84a959c982cf712bb89bce81c92975851f65c512f1a0225",
  "args": [],
  "numDeployments": 1,
  "solcInputHash": "9e44490ce8facca43c572c9e8ed2f0b2",
  "bytecode": "0x608060405234801561001057600080fd5b5061054a806100206000396000f3fe608060405234801561001057600080fd5b50600436106100415760003560e01c8063893d20e814610046578063b7b0422d1461006b578063cfc7e2da14610080575b600080fd5b61004e610096565b6040516001600160a01b0390911681526020015b60405180910390f35b61007e610079366004610444565b6100fd565b005b610088610273565b604051908152602001610062565b6000806100ca7fc8fcad8db84d3cc18b4c41d551ea0ee66dd599cde068d998e57d5e09332c131f546001600160a01b031690565b90506100f86040518060400160405280600a8152602001696765744f776e6572282960b01b815250826102d0565b919050565b7fc8fcad8db84d3cc18b4c41d551ea0ee66dd599cde068d998e57d5e09332c131e6020527f673a26ab9c976db950bbe987aa80c5e387f329563bb0afe093ddccc970489e318054600160ff1991821681179092557f9bed265332efc30fa7643cc339edc91cb284a0f6566818a5788922af58c86b5080548216831790557f795db15802e151b19272d3e7b72ebd9d0cedc282cc23a6e937c8c3c90d9e213780548216831790556307f5828d60e41b6000527fe616bea4664e595328e525b24998219caecea2090de91847473acfb3efaa8aad805490911690911790557fc8fcad8db84d3cc18b4c41d551ea0ee66dd599cde068d998e57d5e09332c131c61020382610315565b61023a6040518060400160405280601081526020016f1a5b9a5d0a0a481b5a5b905b5bdd5b9d60821b81525083836006015461038a565b604080518082019091526006815265696e6974282960d01b6020820152600382015461026f91906001600160a01b03166102d0565b5050565b60008061029e7fc8fcad8db84d3cc18b4c41d551ea0ee66dd599cde068d998e57d5e09332c13225490565b90506100f86040518060400160405280600e81526020016d6765744d696e416d6f756e74282960901b815250826103d6565b61026f82826040516024016102e69291906104a3565b60408051601f198184030181529190526020810180516001600160e01b031663319af33360e01b179052610417565b7fc8fcad8db84d3cc18b4c41d551ea0ee66dd599cde068d998e57d5e09332c132281905560408051808201909152600e81526d7365744d696e416d6f756e74282960901b60208201527fc8fcad8db84d3cc18b4c41d551ea0ee66dd599cde068d998e57d5e09332c131c9061026f90836103d6565b6103d18383836040516024016103a2939291906104cd565b60408051601f198184030181529190526020810180516001600160e01b031663ca47c4eb60e01b179052610417565b505050565b61026f82826040516024016103ec9291906104f2565b60408051601f198184030181529190526020810180516001600160e01b0316632d839cb360e21b1790525b61042081610423565b50565b60006a636f6e736f6c652e6c6f679050600080835160208501845afa505050565b60006020828403121561045657600080fd5b5035919050565b6000815180845260005b8181101561048357602081850181015186830182015201610467565b506000602082860101526020601f19601f83011685010191505092915050565b6040815260006104b6604083018561045d565b905060018060a01b03831660208301529392505050565b6060815260006104e0606083018661045d565b60208301949094525060400152919050565b604081526000610505604083018561045d565b9050826020830152939250505056fea26469706673582212200f02677290ee397eec19923e09a88baa5da83fa8825e15edb71ecc8a87c9570564736f6c63430008110033",
  "devdoc": {
    "kind": "dev",
    "methods": {},
    "version": 1
  },
  "userdoc": {
    "kind": "user",
    "methods": {},
    "version": 1
  },
  "storageLayout": {
    "storage": [],
    "types": null
  }
}