{
  "address": "0x14275fB7cb186b4a3cD914e6126662f52a56BB04",
  "abi": [
    {
      "inputs": [
        {
          "internalType": "address",
          "name": "_user",
          "type": "address"
        },
        {
          "internalType": "address",
          "name": "_contractOwner",
          "type": "address"
        }
      ],
      "name": "NotContractOwner",
      "type": "error"
    },
    {
      "inputs": [],
      "name": "claim",
      "outputs": [],
      "stateMutability": "nonpayable",
      "type": "function"
    },
    {
      "inputs": [],
      "name": "contribute",
      "outputs": [],
      "stateMutability": "payable",
      "type": "function"
    },
    {
      "inputs": [],
      "name": "getContributionAmount",
      "outputs": [
        {
          "internalType": "uint256",
          "name": "",
          "type": "uint256"
        }
      ],
      "stateMutability": "view",
      "type": "function"
    },
    {
      "inputs": [],
      "name": "getMinAmount1",
      "outputs": [
        {
          "internalType": "uint256",
          "name": "",
          "type": "uint256"
        }
      ],
      "stateMutability": "view",
      "type": "function"
    },
    {
      "inputs": [],
      "name": "getMinAmount2",
      "outputs": [
        {
          "internalType": "uint256",
          "name": "",
          "type": "uint256"
        }
      ],
      "stateMutability": "view",
      "type": "function"
    }
  ],
  "transactionHash": "0x3522031bc2d6ac5b85256d23d38683f2f4e039929ddd073928aa743a40a4bd1b",
  "args": [],
  "numDeployments": 1,
  "solcInputHash": "2f4476c470d4cf2c97e1913d98778776",
  "bytecode": "0x608060405234801561001057600080fd5b506105dc806100206000396000f3fe60806040526004361061004a5760003560e01c80634e71d92d1461004f57806365e5a65414610066578063bbb484451461008d578063d7bb99ba146100c1578063ef4b9981146100c9575b600080fd5b34801561005b57600080fd5b506100646100eb565b005b34801561007257600080fd5b5061007b61018d565b60405190815260200160405180910390f35b34801561009957600080fd5b507fc8fcad8db84d3cc18b4c41d551ea0ee66dd599cde068d998e57d5e09332c13245461007b565b6100646101ac565b3480156100d557600080fd5b506000805160206105878339815191525461007b565b6100f3610281565b60006100fd6102f5565b90508061015d5760405162461bcd60e51b8152602060048201526024808201527f4d61696e3a20676f616c206861736e74206265656e2072656163686564206f72604482015263081cd95d60e21b60648201526084015b60405180910390fd5b60405133904780156108fc02916000818181858888f19350505050158015610189573d6000803e3d6000fd5b5050565b6000806101a66000805160206105878339815191525490565b92915050565b60408051808201909152601681527518dbdb9d1c9a589d5d194a0a481b5a5b905b5bdd5b9d60521b6020820152600080516020610587833981519152546000805160206105678339815191529161020291610346565b61023660405180604001604052806012815260200171636f6e7472696275746528292076616c756560701b81525034610346565b61023f3461038b565b3481600801600082825461025391906104b8565b9091555050336000908152600982016020526040812080543492906102799084906104b8565b909155505050565b600080516020610567833981519152600301546001600160a01b031633146102f3577fc8fcad8db84d3cc18b4c41d551ea0ee66dd599cde068d998e57d5e09332c131f54604051600162bed83560e01b031981523360048201526001600160a01b039091166024820152604401610154565b565b7fc8fcad8db84d3cc18b4c41d551ea0ee66dd599cde068d998e57d5e09332c132354600090600080516020610567833981519152901580159061034057508060080154816007015411155b91505090565b610189828260405160240161035c92919061051f565b60408051601f198184030181529190526020810180516001600160e01b0316632d839cb360e21b17905261043f565b604080518082019091526012815271656e666f7263654d696e416d6f756e74282960701b602082015260008051602061058783398151915254600080516020610567833981519152916103de918461044b565b600681015415806103f3575080600601548210155b6101895760405162461bcd60e51b815260206004820152601f60248201527f43726f776466756e643a206c657373207468616e206d696e20616d6f756e74006044820152606401610154565b61044881610497565b50565b61049283838360405160240161046393929190610541565b60408051601f198184030181529190526020810180516001600160e01b031663ca47c4eb60e01b17905261043f565b505050565b60006a636f6e736f6c652e6c6f679050600080835160208501845afa505050565b808201808211156101a657634e487b7160e01b600052601160045260246000fd5b6000815180845260005b818110156104ff576020818501810151868301820152016104e3565b506000602082860101526020601f19601f83011685010191505092915050565b60408152600061053260408301856104d9565b90508260208301529392505050565b60608152600061055460608301866104d9565b6020830194909452506040015291905056fec8fcad8db84d3cc18b4c41d551ea0ee66dd599cde068d998e57d5e09332c131cc8fcad8db84d3cc18b4c41d551ea0ee66dd599cde068d998e57d5e09332c1322a2646970667358221220975d4249158c43328349bec032c5dd4a51fb1fddc91af3dd0a161c1f128f5c9664736f6c63430008110033",
  "devdoc": {
    "kind": "dev",
    "methods": {},
    "version": 1
  },
  "userdoc": {
    "kind": "user",
    "methods": {},
    "version": 1
  },
  "storageLayout": {
    "storage": [],
    "types": null
  }
}