{
  "address": "0xfD0c8B63F97Cd7Bf497c4bC3402E5181283C3D29",
  "abi": [
    {
      "inputs": [
        {
          "internalType": "uint256",
          "name": "subscriptionId",
          "type": "uint256"
        }
      ],
      "stateMutability": "nonpayable",
      "type": "constructor"
    },
    {
      "inputs": [
        {
          "internalType": "address",
          "name": "have",
          "type": "address"
        },
        {
          "internalType": "address",
          "name": "want",
          "type": "address"
        }
      ],
      "name": "OnlyCoordinatorCanFulfill",
      "type": "error"
    },
    {
      "inputs": [
        {
          "internalType": "address",
          "name": "have",
          "type": "address"
        },
        {
          "internalType": "address",
          "name": "owner",
          "type": "address"
        },
        {
          "internalType": "address",
          "name": "coordinator",
          "type": "address"
        }
      ],
      "name": "OnlyOwnerOrCoordinator",
      "type": "error"
    },
    {
      "inputs": [],
      "name": "ZeroAddress",
      "type": "error"
    },
    {
      "anonymous": false,
      "inputs": [
        {
          "indexed": false,
          "internalType": "address",
          "name": "vrfCoordinator",
          "type": "address"
        }
      ],
      "name": "CoordinatorSet",
      "type": "event"
    },
    {
      "anonymous": false,
      "inputs": [
        {
          "indexed": true,
          "internalType": "address",
          "name": "from",
          "type": "address"
        },
        {
          "indexed": true,
          "internalType": "address",
          "name": "to",
          "type": "address"
        }
      ],
      "name": "OwnershipTransferRequested",
      "type": "event"
    },
    {
      "anonymous": false,
      "inputs": [
        {
          "indexed": true,
          "internalType": "address",
          "name": "from",
          "type": "address"
        },
        {
          "indexed": true,
          "internalType": "address",
          "name": "to",
          "type": "address"
        }
      ],
      "name": "OwnershipTransferred",
      "type": "event"
    },
    {
      "anonymous": false,
      "inputs": [
        {
          "indexed": false,
          "internalType": "uint256",
          "name": "",
          "type": "uint256"
        }
      ],
      "name": "RequestRolled",
      "type": "event"
    },
    {
      "anonymous": false,
      "inputs": [
        {
          "indexed": false,
          "internalType": "uint8",
          "name": "roll1",
          "type": "uint8"
        },
        {
          "indexed": false,
          "internalType": "uint8",
          "name": "roll2",
          "type": "uint8"
        },
        {
          "indexed": false,
          "internalType": "uint8",
          "name": "roll3",
          "type": "uint8"
        },
        {
          "indexed": false,
          "internalType": "uint8",
          "name": "roll4",
          "type": "uint8"
        },
        {
          "indexed": false,
          "internalType": "uint8",
          "name": "roll5",
          "type": "uint8"
        },
        {
          "indexed": false,
          "internalType": "uint8",
          "name": "roll6",
          "type": "uint8"
        },
        {
          "indexed": false,
          "internalType": "address",
          "name": "roller",
          "type": "address"
        }
      ],
      "name": "Rolled",
      "type": "event"
    },
    {
      "inputs": [],
      "name": "acceptOwnership",
      "outputs": [],
      "stateMutability": "nonpayable",
      "type": "function"
    },
    {
      "inputs": [
        {
          "internalType": "address",
          "name": "_user",
          "type": "address"
        }
      ],
      "name": "getHasRequested",
      "outputs": [
        {
          "internalType": "bool",
          "name": "",
          "type": "bool"
        }
      ],
      "stateMutability": "view",
      "type": "function"
    },
    {
      "inputs": [
        {
          "internalType": "address",
          "name": "_user",
          "type": "address"
        }
      ],
      "name": "getHasRollResult",
      "outputs": [
        {
          "internalType": "bool",
          "name": "",
          "type": "bool"
        }
      ],
      "stateMutability": "view",
      "type": "function"
    },
    {
      "inputs": [
        {
          "internalType": "address",
          "name": "idx",
          "type": "address"
        }
      ],
      "name": "getRollSet",
      "outputs": [
        {
          "internalType": "uint8",
          "name": "",
          "type": "uint8"
        },
        {
          "internalType": "uint8",
          "name": "",
          "type": "uint8"
        },
        {
          "internalType": "uint8",
          "name": "",
          "type": "uint8"
        },
        {
          "internalType": "uint8",
          "name": "",
          "type": "uint8"
        },
        {
          "internalType": "uint8",
          "name": "",
          "type": "uint8"
        },
        {
          "internalType": "uint8",
          "name": "",
          "type": "uint8"
        }
      ],
      "stateMutability": "view",
      "type": "function"
    },
    {
      "inputs": [],
      "name": "owner",
      "outputs": [
        {
          "internalType": "address",
          "name": "",
          "type": "address"
        }
      ],
      "stateMutability": "view",
      "type": "function"
    },
    {
      "inputs": [
        {
          "internalType": "uint256",
          "name": "requestId",
          "type": "uint256"
        },
        {
          "internalType": "uint256[]",
          "name": "randomWords",
          "type": "uint256[]"
        }
      ],
      "name": "rawFulfillRandomWords",
      "outputs": [],
      "stateMutability": "nonpayable",
      "type": "function"
    },
    {
      "inputs": [],
      "name": "requestRandomRoll",
      "outputs": [],
      "stateMutability": "nonpayable",
      "type": "function"
    },
    {
      "inputs": [
        {
          "internalType": "uint256",
          "name": "",
          "type": "uint256"
        }
      ],
      "name": "requests",
      "outputs": [
        {
          "internalType": "address",
          "name": "",
          "type": "address"
        }
      ],
      "stateMutability": "view",
      "type": "function"
    },
    {
      "inputs": [
        {
          "internalType": "address",
          "name": "",
          "type": "address"
        }
      ],
      "name": "rollResults",
      "outputs": [
        {
          "internalType": "bool",
          "name": "hasRequested",
          "type": "bool"
        }
      ],
      "stateMutability": "view",
      "type": "function"
    },
    {
      "inputs": [],
      "name": "s_vrfCoordinator",
      "outputs": [
        {
          "internalType": "contract IVRFCoordinatorV2Plus",
          "name": "",
          "type": "address"
        }
      ],
      "stateMutability": "view",
      "type": "function"
    },
    {
      "inputs": [
        {
          "internalType": "address",
          "name": "_vrfCoordinator",
          "type": "address"
        }
      ],
      "name": "setCoordinator",
      "outputs": [],
      "stateMutability": "nonpayable",
      "type": "function"
    },
    {
      "inputs": [
        {
          "internalType": "address",
          "name": "to",
          "type": "address"
        }
      ],
      "name": "transferOwnership",
      "outputs": [],
      "stateMutability": "nonpayable",
      "type": "function"
    }
  ],
  "transactionHash": "0xf0b816a4703f475d111c0d2fdb48e31180d415873a9b39cb8f5f198925fbf254",
  "args": [
    "107878091187149263015141815024525257687721135615365384364090311586841463861613"
  ],
  "numDeployments": 1,
  "solcInputHash": "a5db53d4ad1a48a08ea8fe8eddd97208",
  "bytecode": "0x6080604052600480546001600160a01b031916739ddfaca8183c41ad55329bdeed9f6a8d53168b1b1790557f787d74caea10b2b357790d5b5247c2f63d1d91572a9846f780606e4d953677ae6005556006805466010003000f42406001600160501b031990911617905534801561007557600080fd5b50604051610f32380380610f3283398101604081905261009491610221565b6004546001600160a01b031633806000816100f65760405162461bcd60e51b815260206004820152601860248201527f43616e6e6f7420736574206f776e657220746f207a65726f000000000000000060448201526064015b60405180910390fd5b600080546001600160a01b0319166001600160a01b03848116919091179091558116156101265761012681610178565b5050506001600160a01b0381166101505760405163d92e233d60e01b815260040160405180910390fd5b50600280546004546001600160a01b03166001600160a01b031990911617905560035561023a565b336001600160a01b038216036101d05760405162461bcd60e51b815260206004820152601760248201527f43616e6e6f74207472616e7366657220746f2073656c6600000000000000000060448201526064016100ed565b600180546001600160a01b0319166001600160a01b0383811691821790925560008054604051929316917fed8889f560326eb138920d842192f0eb3dd22b4f139c87a2c57538e05bae12789190a350565b60006020828403121561023357600080fd5b5051919050565b610ce9806102496000396000f3fe608060405234801561001057600080fd5b50600436106100b45760003560e01c80638ea98117116100715780638ea98117146101715780638ee2d9fb146101845780639940f216146101a75780639eccacf6146101d5578063e75a4948146101e8578063f2fde38b1461023757600080fd5b806307d157d5146100b957806312fcce42146100c35780631fe543e31461010457806379ba50971461011757806381d12c581461011f5780638da5cb5b14610160575b600080fd5b6100c161024a565b005b6100ef6100d1366004610ae3565b6001600160a01b031660009081526008602052604090205460ff1690565b60405190151581526020015b60405180910390f35b6100c1610112366004610b13565b610399565b6100c16103ee565b61014861012d366004610b92565b6007602052600090815260409020546001600160a01b031681565b6040516001600160a01b0390911681526020016100fb565b6000546001600160a01b0316610148565b6100c161017f366004610ae3565b610498565b6100ef610192366004610ae3565b60086020526000908152604090205460ff1681565b6100ef6101b5366004610ae3565b6001600160a01b0316600090815260086020526040902060010154151590565b600254610148906001600160a01b031681565b6101fb6101f6366004610ae3565b610584565b6040805160ff978816815295871660208701529386169385019390935290841660608401528316608083015290911660a082015260c0016100fb565b6100c1610245366004610ae3565b6106c0565b6002546040805160c081018252600554815260035460208083019190915260065461ffff6401000000008204168385015263ffffffff808216606085015266010000000000009091041660808301528251908101909252600182526000926001600160a01b031691639b1c385e919060a08201906102c7906106d4565b8152506040518263ffffffff1660e01b81526004016102e69190610bab565b6020604051808303816000875af1158015610305573d6000803e3d6000fd5b505050506040513d601f19601f820116820180604052508101906103299190610c47565b600081815260076020908152604080832080546001600160a01b0319163390811790915583526008825291829020805460ff1916600117905590518281529192507f3118f7cb54e3cb0baeaf43edf3675537978257a199536f9ce24586b482d446d091015b60405180910390a150565b6002546001600160a01b031633146103de5760025460405163073e64fd60e21b81523360048201526001600160a01b0390911660248201526044015b60405180910390fd5b6103e9838383610745565b505050565b6001546001600160a01b031633146104415760405162461bcd60e51b815260206004820152601660248201527526bab9ba10313290383937b837b9b2b21037bbb732b960511b60448201526064016103d5565b60008054336001600160a01b0319808316821784556001805490911690556040516001600160a01b0390921692909183917f8be0079c531659141344cd1fd0a4f28419497f9722a3daafe3b4186f6b6457e091a350565b6000546001600160a01b031633148015906104be57506002546001600160a01b03163314155b1561050f57336104d66000546001600160a01b031690565b60025460405163061db9c160e01b81526001600160a01b03938416600482015291831660248301529190911660448201526064016103d5565b6001600160a01b0381166105365760405163d92e233d60e01b815260040160405180910390fd5b600280546001600160a01b0319166001600160a01b0383169081179091556040519081527fd1a6a14209a385a964d036e404cb5cfb71f4000cdb03c9366292430787261be69060200161038e565b600080600080600080600060086000896001600160a01b03166001600160a01b0316815260200190815260200160002060010180548060200260200160405190810160405280929190818152602001828054801561060157602002820191906000526020600020905b8154815260200190600101908083116105ed575b505050505090508060008151811061061b5761061b610c60565b60200260200101518160018151811061063657610636610c60565b60200260200101518260028151811061065157610651610c60565b60200260200101518360038151811061066c5761066c610c60565b60200260200101518460048151811061068757610687610c60565b6020026020010151856005815181106106a2576106a2610c60565b60200260200101519650965096509650965096505091939550919395565b6106c86108d0565b6106d181610925565b50565b60607f92fd13387c7fe7befbc38d303d6468778fb9731bc4583f17d92989c6fcfdeaaa8260405160240161070d91511515815260200190565b60408051601f198184030181529190526020810180516001600160e01b03166001600160e01b03199093169290921790915292915050565b600061076b8383600081811061075d5761075d610c60565b9050602002013560066109ce565b6000858152600760209081526040808320546001600160a01b031683526008825290912082519293506107a692600190910191840190610a83565b507f1aed60fc2e66412b23710733b9cdb77abee758908a153e5db98c1e524129b830816000815181106107db576107db610c60565b6020026020010151826001815181106107f6576107f6610c60565b60200260200101518360028151811061081157610811610c60565b60200260200101518460038151811061082c5761082c610c60565b60200260200101518560048151811061084757610847610c60565b60200260200101518660058151811061086257610862610c60565b60209081029190910181015160008c81526007835260409081902054815160ff998a168152978916938801939093529487168686015292861660608601529085166080850152931660a08301526001600160a01b0390921660c082015290519081900360e00190a150505050565b6000546001600160a01b031633146109235760405162461bcd60e51b815260206004820152601660248201527527b7363c9031b0b63630b1363290313c9037bbb732b960511b60448201526064016103d5565b565b336001600160a01b0382160361097d5760405162461bcd60e51b815260206004820152601760248201527f43616e6e6f74207472616e7366657220746f2073656c6600000000000000000060448201526064016103d5565b600180546001600160a01b0319166001600160a01b0383811691821790925560008054604051929316917fed8889f560326eb138920d842192f0eb3dd22b4f139c87a2c57538e05bae12789190a350565b60608167ffffffffffffffff8111156109e9576109e9610c76565b604051908082528060200260200182016040528015610a12578160200160208202803683370190505b50905060005b82811015610a7c5760408051602081018690529081018290526060016040516020818303038152906040528051906020012060001c828281518110610a5f57610a5f610c60565b602090810291909101015280610a7481610c8c565b915050610a18565b5092915050565b828054828255906000526020600020908101928215610abe579160200282015b82811115610abe578251825591602001919060010190610aa3565b50610aca929150610ace565b5090565b5b80821115610aca5760008155600101610acf565b600060208284031215610af557600080fd5b81356001600160a01b0381168114610b0c57600080fd5b9392505050565b600080600060408486031215610b2857600080fd5b83359250602084013567ffffffffffffffff80821115610b4757600080fd5b818601915086601f830112610b5b57600080fd5b813581811115610b6a57600080fd5b8760208260051b8501011115610b7f57600080fd5b6020830194508093505050509250925092565b600060208284031215610ba457600080fd5b5035919050565b6000602080835283518184015280840151604084015261ffff6040850151166060840152606084015163ffffffff80821660808601528060808701511660a0860152505060a084015160c08085015280518060e086015260005b81811015610c225782810184015186820161010001528301610c05565b506101009250600083828701015282601f19601f830116860101935050505092915050565b600060208284031215610c5957600080fd5b5051919050565b634e487b7160e01b600052603260045260246000fd5b634e487b7160e01b600052604160045260246000fd5b600060018201610cac57634e487b7160e01b600052601160045260246000fd5b506001019056fea264697066735822122056d31e3c1bcec0f122192035df72d0f7f1e434b66214ddee1db4675177b1b9e464736f6c63430008130033",
  "devdoc": {
    "kind": "dev",
    "methods": {},
    "version": 1
  },
  "userdoc": {
    "kind": "user",
    "methods": {
      "acceptOwnership()": {
        "notice": "Allows an ownership transfer to be completed by the recipient."
      },
      "owner()": {
        "notice": "Get the current owner"
      },
      "setCoordinator(address)": {
        "notice": "Sets the VRF Coordinator addressThis method should only be callable by the coordinator or contract owner"
      },
      "transferOwnership(address)": {
        "notice": "Allows an owner to begin transferring ownership to a new address."
      }
    },
    "version": 1
  },
  "storageLayout": {
    "storage": [
      {
        "astId": 29,
        "contract": "contracts/MultiDiceRolls.sol:MultiDiceRolls",
        "label": "s_owner",
        "offset": 0,
        "slot": "0",
        "type": "t_address"
      },
      {
        "astId": 31,
        "contract": "contracts/MultiDiceRolls.sol:MultiDiceRolls",
        "label": "s_pendingOwner",
        "offset": 0,
        "slot": "1",
        "type": "t_address"
      },
      {
        "astId": 326,
        "contract": "contracts/MultiDiceRolls.sol:MultiDiceRolls",
        "label": "s_vrfCoordinator",
        "offset": 0,
        "slot": "2",
        "type": "t_contract(IVRFCoordinatorV2Plus)475"
      },
      {
        "astId": 635,
        "contract": "contracts/MultiDiceRolls.sol:MultiDiceRolls",
        "label": "s_subscriptionId",
        "offset": 0,
        "slot": "3",
        "type": "t_uint256"
      },
      {
        "astId": 638,
        "contract": "contracts/MultiDiceRolls.sol:MultiDiceRolls",
        "label": "vrfCoordinatorV2Plus",
        "offset": 0,
        "slot": "4",
        "type": "t_address"
      },
      {
        "astId": 641,
        "contract": "contracts/MultiDiceRolls.sol:MultiDiceRolls",
        "label": "keyHash",
        "offset": 0,
        "slot": "5",
        "type": "t_bytes32"
      },
      {
        "astId": 644,
        "contract": "contracts/MultiDiceRolls.sol:MultiDiceRolls",
        "label": "callbackGasLimit",
        "offset": 0,
        "slot": "6",
        "type": "t_uint32"
      },
      {
        "astId": 647,
        "contract": "contracts/MultiDiceRolls.sol:MultiDiceRolls",
        "label": "requestConfirmations",
        "offset": 4,
        "slot": "6",
        "type": "t_uint16"
      },
      {
        "astId": 650,
        "contract": "contracts/MultiDiceRolls.sol:MultiDiceRolls",
        "label": "numWords",
        "offset": 6,
        "slot": "6",
        "type": "t_uint32"
      },
      {
        "astId": 660,
        "contract": "contracts/MultiDiceRolls.sol:MultiDiceRolls",
        "label": "requests",
        "offset": 0,
        "slot": "7",
        "type": "t_mapping(t_uint256,t_address)"
      },
      {
        "astId": 665,
        "contract": "contracts/MultiDiceRolls.sol:MultiDiceRolls",
        "label": "rollResults",
        "offset": 0,
        "slot": "8",
        "type": "t_mapping(t_address,t_struct(RollResult)656_storage)"
      }
    ],
    "types": {
      "t_address": {
        "encoding": "inplace",
        "label": "address",
        "numberOfBytes": "20"
      },
      "t_array(t_uint256)dyn_storage": {
        "base": "t_uint256",
        "encoding": "dynamic_array",
        "label": "uint256[]",
        "numberOfBytes": "32"
      },
      "t_bool": {
        "encoding": "inplace",
        "label": "bool",
        "numberOfBytes": "1"
      },
      "t_bytes32": {
        "encoding": "inplace",
        "label": "bytes32",
        "numberOfBytes": "32"
      },
      "t_contract(IVRFCoordinatorV2Plus)475": {
        "encoding": "inplace",
        "label": "contract IVRFCoordinatorV2Plus",
        "numberOfBytes": "20"
      },
      "t_mapping(t_address,t_struct(RollResult)656_storage)": {
        "encoding": "mapping",
        "key": "t_address",
        "label": "mapping(address => struct MultiDiceRolls.RollResult)",
        "numberOfBytes": "32",
        "value": "t_struct(RollResult)656_storage"
      },
      "t_mapping(t_uint256,t_address)": {
        "encoding": "mapping",
        "key": "t_uint256",
        "label": "mapping(uint256 => address)",
        "numberOfBytes": "32",
        "value": "t_address"
      },
      "t_struct(RollResult)656_storage": {
        "encoding": "inplace",
        "label": "struct MultiDiceRolls.RollResult",
        "members": [
          {
            "astId": 652,
            "contract": "contracts/MultiDiceRolls.sol:MultiDiceRolls",
            "label": "hasRequested",
            "offset": 0,
            "slot": "0",
            "type": "t_bool"
          },
          {
            "astId": 655,
            "contract": "contracts/MultiDiceRolls.sol:MultiDiceRolls",
            "label": "rollSet",
            "offset": 0,
            "slot": "1",
            "type": "t_array(t_uint256)dyn_storage"
          }
        ],
        "numberOfBytes": "64"
      },
      "t_uint16": {
        "encoding": "inplace",
        "label": "uint16",
        "numberOfBytes": "2"
      },
      "t_uint256": {
        "encoding": "inplace",
        "label": "uint256",
        "numberOfBytes": "32"
      },
      "t_uint32": {
        "encoding": "inplace",
        "label": "uint32",
        "numberOfBytes": "4"
      }
    }
  }
}