{
  "address": "0x5087b2Ffc810b3135EC88DabB3ce97652A33F474",
  "abi": [
    {
      "inputs": [
        {
          "internalType": "uint256",
          "name": "subscriptionId",
          "type": "uint256"
        }
      ],
      "stateMutability": "nonpayable",
      "type": "constructor"
    },
    {
      "inputs": [
        {
          "internalType": "address",
          "name": "have",
          "type": "address"
        },
        {
          "internalType": "address",
          "name": "want",
          "type": "address"
        }
      ],
      "name": "OnlyCoordinatorCanFulfill",
      "type": "error"
    },
    {
      "inputs": [
        {
          "internalType": "address",
          "name": "have",
          "type": "address"
        },
        {
          "internalType": "address",
          "name": "owner",
          "type": "address"
        },
        {
          "internalType": "address",
          "name": "coordinator",
          "type": "address"
        }
      ],
      "name": "OnlyOwnerOrCoordinator",
      "type": "error"
    },
    {
      "inputs": [],
      "name": "ZeroAddress",
      "type": "error"
    },
    {
      "anonymous": false,
      "inputs": [
        {
          "indexed": false,
          "internalType": "address",
          "name": "vrfCoordinator",
          "type": "address"
        }
      ],
      "name": "CoordinatorSet",
      "type": "event"
    },
    {
      "anonymous": false,
      "inputs": [
        {
          "indexed": true,
          "internalType": "address",
          "name": "from",
          "type": "address"
        },
        {
          "indexed": true,
          "internalType": "address",
          "name": "to",
          "type": "address"
        }
      ],
      "name": "OwnershipTransferRequested",
      "type": "event"
    },
    {
      "anonymous": false,
      "inputs": [
        {
          "indexed": true,
          "internalType": "address",
          "name": "from",
          "type": "address"
        },
        {
          "indexed": true,
          "internalType": "address",
          "name": "to",
          "type": "address"
        }
      ],
      "name": "OwnershipTransferred",
      "type": "event"
    },
    {
      "anonymous": false,
      "inputs": [
        {
          "indexed": false,
          "internalType": "uint256",
          "name": "",
          "type": "uint256"
        }
      ],
      "name": "RequestRolled",
      "type": "event"
    },
    {
      "anonymous": false,
      "inputs": [
        {
          "indexed": false,
          "internalType": "uint8",
          "name": "roll1",
          "type": "uint8"
        },
        {
          "indexed": false,
          "internalType": "uint8",
          "name": "roll2",
          "type": "uint8"
        },
        {
          "indexed": false,
          "internalType": "uint8",
          "name": "roll3",
          "type": "uint8"
        },
        {
          "indexed": false,
          "internalType": "uint8",
          "name": "roll4",
          "type": "uint8"
        },
        {
          "indexed": false,
          "internalType": "uint8",
          "name": "roll5",
          "type": "uint8"
        },
        {
          "indexed": false,
          "internalType": "uint8",
          "name": "roll6",
          "type": "uint8"
        }
      ],
      "name": "Rolled",
      "type": "event"
    },
    {
      "inputs": [],
      "name": "acceptOwnership",
      "outputs": [],
      "stateMutability": "nonpayable",
      "type": "function"
    },
    {
      "inputs": [
        {
          "internalType": "address",
          "name": "idx",
          "type": "address"
        }
      ],
      "name": "getRollSet",
      "outputs": [
        {
          "internalType": "uint8",
          "name": "",
          "type": "uint8"
        },
        {
          "internalType": "uint8",
          "name": "",
          "type": "uint8"
        },
        {
          "internalType": "uint8",
          "name": "",
          "type": "uint8"
        },
        {
          "internalType": "uint8",
          "name": "",
          "type": "uint8"
        },
        {
          "internalType": "uint8",
          "name": "",
          "type": "uint8"
        },
        {
          "internalType": "uint8",
          "name": "",
          "type": "uint8"
        }
      ],
      "stateMutability": "view",
      "type": "function"
    },
    {
      "inputs": [],
      "name": "owner",
      "outputs": [
        {
          "internalType": "address",
          "name": "",
          "type": "address"
        }
      ],
      "stateMutability": "view",
      "type": "function"
    },
    {
      "inputs": [
        {
          "internalType": "uint256",
          "name": "requestId",
          "type": "uint256"
        },
        {
          "internalType": "uint256[]",
          "name": "randomWords",
          "type": "uint256[]"
        }
      ],
      "name": "rawFulfillRandomWords",
      "outputs": [],
      "stateMutability": "nonpayable",
      "type": "function"
    },
    {
      "inputs": [],
      "name": "requestRandomRoll",
      "outputs": [],
      "stateMutability": "nonpayable",
      "type": "function"
    },
    {
      "inputs": [
        {
          "internalType": "uint256",
          "name": "",
          "type": "uint256"
        }
      ],
      "name": "requests",
      "outputs": [
        {
          "internalType": "address",
          "name": "",
          "type": "address"
        }
      ],
      "stateMutability": "view",
      "type": "function"
    },
    {
      "inputs": [
        {
          "internalType": "address",
          "name": "",
          "type": "address"
        }
      ],
      "name": "rollResults",
      "outputs": [
        {
          "internalType": "bool",
          "name": "hasRequested",
          "type": "bool"
        }
      ],
      "stateMutability": "view",
      "type": "function"
    },
    {
      "inputs": [],
      "name": "s_vrfCoordinator",
      "outputs": [
        {
          "internalType": "contract IVRFCoordinatorV2Plus",
          "name": "",
          "type": "address"
        }
      ],
      "stateMutability": "view",
      "type": "function"
    },
    {
      "inputs": [
        {
          "internalType": "address",
          "name": "_vrfCoordinator",
          "type": "address"
        }
      ],
      "name": "setCoordinator",
      "outputs": [],
      "stateMutability": "nonpayable",
      "type": "function"
    },
    {
      "inputs": [
        {
          "internalType": "address",
          "name": "to",
          "type": "address"
        }
      ],
      "name": "transferOwnership",
      "outputs": [],
      "stateMutability": "nonpayable",
      "type": "function"
    }
  ],
  "transactionHash": "0x0e02561cb7a42fa0bb1d951378cded716a780d1333b004a0b6795441b7033f9c",
  "args": [
    "107878091187149263015141815024525257687721135615365384364090311586841463861613"
  ],
  "numDeployments": 1,
  "solcInputHash": "d9e4306e4fe2884c6116055a3ae2eb1d",
  "bytecode": "0x6080604052600480546001600160a01b031916739ddfaca8183c41ad55329bdeed9f6a8d53168b1b1790557f787d74caea10b2b357790d5b5247c2f63d1d91572a9846f780606e4d953677ae6005556006805466010003000f42406001600160501b031990911617905534801561007557600080fd5b50604051610eab380380610eab83398101604081905261009491610221565b6004546001600160a01b031633806000816100f65760405162461bcd60e51b815260206004820152601860248201527f43616e6e6f7420736574206f776e657220746f207a65726f000000000000000060448201526064015b60405180910390fd5b600080546001600160a01b0319166001600160a01b03848116919091179091558116156101265761012681610178565b5050506001600160a01b0381166101505760405163d92e233d60e01b815260040160405180910390fd5b50600280546004546001600160a01b03166001600160a01b031990911617905560035561023a565b336001600160a01b038216036101d05760405162461bcd60e51b815260206004820152601760248201527f43616e6e6f74207472616e7366657220746f2073656c6600000000000000000060448201526064016100ed565b600180546001600160a01b0319166001600160a01b0383811691821790925560008054604051929316917fed8889f560326eb138920d842192f0eb3dd22b4f139c87a2c57538e05bae12789190a350565b60006020828403121561023357600080fd5b5051919050565b610c62806102496000396000f3fe608060405234801561001057600080fd5b506004361061009e5760003560e01c80638ea98117116100665780638ea981171461011f5780638ee2d9fb146101325780639eccacf614610165578063e75a494814610178578063f2fde38b146101c757600080fd5b806307d157d5146100a35780631fe543e3146100ad57806379ba5097146100c057806381d12c58146100c85780638da5cb5b1461010e575b600080fd5b6100ab6101da565b005b6100ab6100bb366004610a5c565b610329565b6100ab61037e565b6100f16100d6366004610adb565b6007602052600090815260409020546001600160a01b031681565b6040516001600160a01b0390911681526020015b60405180910390f35b6000546001600160a01b03166100f1565b6100ab61012d366004610af4565b610428565b610155610140366004610af4565b60086020526000908152604090205460ff1681565b6040519015158152602001610105565b6002546100f1906001600160a01b031681565b61018b610186366004610af4565b610514565b6040805160ff978816815295871660208701529386169385019390935290841660608401528316608083015290911660a082015260c001610105565b6100ab6101d5366004610af4565b610650565b6002546040805160c081018252600554815260035460208083019190915260065461ffff6401000000008204168385015263ffffffff808216606085015266010000000000009091041660808301528251908101909252600182526000926001600160a01b031691639b1c385e919060a082019061025790610664565b8152506040518263ffffffff1660e01b81526004016102769190610b24565b6020604051808303816000875af1158015610295573d6000803e3d6000fd5b505050506040513d601f19601f820116820180604052508101906102b99190610bc0565b600081815260076020908152604080832080546001600160a01b0319163390811790915583526008825291829020805460ff1916600117905590518281529192507f3118f7cb54e3cb0baeaf43edf3675537978257a199536f9ce24586b482d446d091015b60405180910390a150565b6002546001600160a01b0316331461036e5760025460405163073e64fd60e21b81523360048201526001600160a01b0390911660248201526044015b60405180910390fd5b6103798383836106d5565b505050565b6001546001600160a01b031633146103d15760405162461bcd60e51b815260206004820152601660248201527526bab9ba10313290383937b837b9b2b21037bbb732b960511b6044820152606401610365565b60008054336001600160a01b0319808316821784556001805490911690556040516001600160a01b0390921692909183917f8be0079c531659141344cd1fd0a4f28419497f9722a3daafe3b4186f6b6457e091a350565b6000546001600160a01b0316331480159061044e57506002546001600160a01b03163314155b1561049f57336104666000546001600160a01b031690565b60025460405163061db9c160e01b81526001600160a01b0393841660048201529183166024830152919091166044820152606401610365565b6001600160a01b0381166104c65760405163d92e233d60e01b815260040160405180910390fd5b600280546001600160a01b0319166001600160a01b0383169081179091556040519081527fd1a6a14209a385a964d036e404cb5cfb71f4000cdb03c9366292430787261be69060200161031e565b600080600080600080600060086000896001600160a01b03166001600160a01b0316815260200190815260200160002060010180548060200260200160405190810160405280929190818152602001828054801561059157602002820191906000526020600020905b81548152602001906001019080831161057d575b50505050509050806000815181106105ab576105ab610bd9565b6020026020010151816001815181106105c6576105c6610bd9565b6020026020010151826002815181106105e1576105e1610bd9565b6020026020010151836003815181106105fc576105fc610bd9565b60200260200101518460048151811061061757610617610bd9565b60200260200101518560058151811061063257610632610bd9565b60200260200101519650965096509650965096505091939550919395565b610658610849565b6106618161089e565b50565b60607f92fd13387c7fe7befbc38d303d6468778fb9731bc4583f17d92989c6fcfdeaaa8260405160240161069d91511515815260200190565b60408051601f198184030181529190526020810180516001600160e01b03166001600160e01b03199093169290921790915292915050565b60006106fb838360008181106106ed576106ed610bd9565b905060200201356006610947565b6000858152600760209081526040808320546001600160a01b03168352600882529091208251929350610736926001909101918401906109fc565b507f3d987f5ee664055596215b0d0063e550f3e3b2b6f3ad824c7127dc29ee5025088160008151811061076b5761076b610bd9565b60200260200101518260018151811061078657610786610bd9565b6020026020010151836002815181106107a1576107a1610bd9565b6020026020010151846003815181106107bc576107bc610bd9565b6020026020010151856004815181106107d7576107d7610bd9565b6020026020010151866005815181106107f2576107f2610bd9565b602002602001015160405161083b9695949392919060ff96871681529486166020860152928516604085015290841660608401528316608083015290911660a082015260c00190565b60405180910390a150505050565b6000546001600160a01b0316331461089c5760405162461bcd60e51b815260206004820152601660248201527527b7363c9031b0b63630b1363290313c9037bbb732b960511b6044820152606401610365565b565b336001600160a01b038216036108f65760405162461bcd60e51b815260206004820152601760248201527f43616e6e6f74207472616e7366657220746f2073656c660000000000000000006044820152606401610365565b600180546001600160a01b0319166001600160a01b0383811691821790925560008054604051929316917fed8889f560326eb138920d842192f0eb3dd22b4f139c87a2c57538e05bae12789190a350565b60608167ffffffffffffffff81111561096257610962610bef565b60405190808252806020026020018201604052801561098b578160200160208202803683370190505b50905060005b828110156109f55760408051602081018690529081018290526060016040516020818303038152906040528051906020012060001c8282815181106109d8576109d8610bd9565b6020908102919091010152806109ed81610c05565b915050610991565b5092915050565b828054828255906000526020600020908101928215610a37579160200282015b82811115610a37578251825591602001919060010190610a1c565b50610a43929150610a47565b5090565b5b80821115610a435760008155600101610a48565b600080600060408486031215610a7157600080fd5b83359250602084013567ffffffffffffffff80821115610a9057600080fd5b818601915086601f830112610aa457600080fd5b813581811115610ab357600080fd5b8760208260051b8501011115610ac857600080fd5b6020830194508093505050509250925092565b600060208284031215610aed57600080fd5b5035919050565b600060208284031215610b0657600080fd5b81356001600160a01b0381168114610b1d57600080fd5b9392505050565b6000602080835283518184015280840151604084015261ffff6040850151166060840152606084015163ffffffff80821660808601528060808701511660a0860152505060a084015160c08085015280518060e086015260005b81811015610b9b5782810184015186820161010001528301610b7e565b506101009250600083828701015282601f19601f830116860101935050505092915050565b600060208284031215610bd257600080fd5b5051919050565b634e487b7160e01b600052603260045260246000fd5b634e487b7160e01b600052604160045260246000fd5b600060018201610c2557634e487b7160e01b600052601160045260246000fd5b506001019056fea26469706673582212205940e36aa71d1f324e190003e609b4929a51ffb5795b9d1f75eb8c0fded232ab64736f6c63430008130033",
  "devdoc": {
    "kind": "dev",
    "methods": {},
    "version": 1
  },
  "userdoc": {
    "kind": "user",
    "methods": {
      "acceptOwnership()": {
        "notice": "Allows an ownership transfer to be completed by the recipient."
      },
      "owner()": {
        "notice": "Get the current owner"
      },
      "setCoordinator(address)": {
        "notice": "Sets the VRF Coordinator addressThis method should only be callable by the coordinator or contract owner"
      },
      "transferOwnership(address)": {
        "notice": "Allows an owner to begin transferring ownership to a new address."
      }
    },
    "version": 1
  },
  "storageLayout": {
    "storage": [
      {
        "astId": 1117,
        "contract": "contracts/MultiDiceRolls.sol:MultihDiceRolls",
        "label": "s_owner",
        "offset": 0,
        "slot": "0",
        "type": "t_address"
      },
      {
        "astId": 1119,
        "contract": "contracts/MultiDiceRolls.sol:MultihDiceRolls",
        "label": "s_pendingOwner",
        "offset": 0,
        "slot": "1",
        "type": "t_address"
      },
      {
        "astId": 2439,
        "contract": "contracts/MultiDiceRolls.sol:MultihDiceRolls",
        "label": "s_vrfCoordinator",
        "offset": 0,
        "slot": "2",
        "type": "t_contract(IVRFCoordinatorV2Plus)2588"
      },
      {
        "astId": 3307,
        "contract": "contracts/MultiDiceRolls.sol:MultihDiceRolls",
        "label": "s_subscriptionId",
        "offset": 0,
        "slot": "3",
        "type": "t_uint256"
      },
      {
        "astId": 3310,
        "contract": "contracts/MultiDiceRolls.sol:MultihDiceRolls",
        "label": "vrfCoordinatorV2Plus",
        "offset": 0,
        "slot": "4",
        "type": "t_address"
      },
      {
        "astId": 3313,
        "contract": "contracts/MultiDiceRolls.sol:MultihDiceRolls",
        "label": "keyHash",
        "offset": 0,
        "slot": "5",
        "type": "t_bytes32"
      },
      {
        "astId": 3316,
        "contract": "contracts/MultiDiceRolls.sol:MultihDiceRolls",
        "label": "callbackGasLimit",
        "offset": 0,
        "slot": "6",
        "type": "t_uint32"
      },
      {
        "astId": 3319,
        "contract": "contracts/MultiDiceRolls.sol:MultihDiceRolls",
        "label": "requestConfirmations",
        "offset": 4,
        "slot": "6",
        "type": "t_uint16"
      },
      {
        "astId": 3322,
        "contract": "contracts/MultiDiceRolls.sol:MultihDiceRolls",
        "label": "numWords",
        "offset": 6,
        "slot": "6",
        "type": "t_uint32"
      },
      {
        "astId": 3332,
        "contract": "contracts/MultiDiceRolls.sol:MultihDiceRolls",
        "label": "requests",
        "offset": 0,
        "slot": "7",
        "type": "t_mapping(t_uint256,t_address)"
      },
      {
        "astId": 3337,
        "contract": "contracts/MultiDiceRolls.sol:MultihDiceRolls",
        "label": "rollResults",
        "offset": 0,
        "slot": "8",
        "type": "t_mapping(t_address,t_struct(RollResult)3328_storage)"
      }
    ],
    "types": {
      "t_address": {
        "encoding": "inplace",
        "label": "address",
        "numberOfBytes": "20"
      },
      "t_array(t_uint256)dyn_storage": {
        "base": "t_uint256",
        "encoding": "dynamic_array",
        "label": "uint256[]",
        "numberOfBytes": "32"
      },
      "t_bool": {
        "encoding": "inplace",
        "label": "bool",
        "numberOfBytes": "1"
      },
      "t_bytes32": {
        "encoding": "inplace",
        "label": "bytes32",
        "numberOfBytes": "32"
      },
      "t_contract(IVRFCoordinatorV2Plus)2588": {
        "encoding": "inplace",
        "label": "contract IVRFCoordinatorV2Plus",
        "numberOfBytes": "20"
      },
      "t_mapping(t_address,t_struct(RollResult)3328_storage)": {
        "encoding": "mapping",
        "key": "t_address",
        "label": "mapping(address => struct MultihDiceRolls.RollResult)",
        "numberOfBytes": "32",
        "value": "t_struct(RollResult)3328_storage"
      },
      "t_mapping(t_uint256,t_address)": {
        "encoding": "mapping",
        "key": "t_uint256",
        "label": "mapping(uint256 => address)",
        "numberOfBytes": "32",
        "value": "t_address"
      },
      "t_struct(RollResult)3328_storage": {
        "encoding": "inplace",
        "label": "struct MultihDiceRolls.RollResult",
        "members": [
          {
            "astId": 3324,
            "contract": "contracts/MultiDiceRolls.sol:MultihDiceRolls",
            "label": "hasRequested",
            "offset": 0,
            "slot": "0",
            "type": "t_bool"
          },
          {
            "astId": 3327,
            "contract": "contracts/MultiDiceRolls.sol:MultihDiceRolls",
            "label": "rollSet",
            "offset": 0,
            "slot": "1",
            "type": "t_array(t_uint256)dyn_storage"
          }
        ],
        "numberOfBytes": "64"
      },
      "t_uint16": {
        "encoding": "inplace",
        "label": "uint16",
        "numberOfBytes": "2"
      },
      "t_uint256": {
        "encoding": "inplace",
        "label": "uint256",
        "numberOfBytes": "32"
      },
      "t_uint32": {
        "encoding": "inplace",
        "label": "uint32",
        "numberOfBytes": "4"
      }
    }
  }
}