{
  "address": "0x0F10d361e5e5D2528A6b3388465B10Cf7847E056",
  "abi": [
    {
      "inputs": [
        {
          "internalType": "address",
          "name": "_user",
          "type": "address"
        },
        {
          "internalType": "address",
          "name": "_contractOwner",
          "type": "address"
        }
      ],
      "name": "NotContractOwner",
      "type": "error"
    },
    {
      "anonymous": false,
      "inputs": [
        {
          "indexed": true,
          "internalType": "address",
          "name": "previousOwner",
          "type": "address"
        },
        {
          "indexed": true,
          "internalType": "address",
          "name": "newOwner",
          "type": "address"
        }
      ],
      "name": "OwnershipTransferred",
      "type": "event"
    },
    {
      "inputs": [],
      "name": "owner",
      "outputs": [
        {
          "internalType": "address",
          "name": "owner_",
          "type": "address"
        }
      ],
      "stateMutability": "view",
      "type": "function"
    },
    {
      "inputs": [
        {
          "internalType": "address",
          "name": "_newOwner",
          "type": "address"
        }
      ],
      "name": "transferOwnership",
      "outputs": [],
      "stateMutability": "nonpayable",
      "type": "function"
    }
  ],
  "transactionHash": "0xc0878898f9f0dc1ae512a3920194a5b073c86732d2c854f99142fcd31cbab54d",
  "args": [],
  "numDeployments": 1,
  "solcInputHash": "2f4476c470d4cf2c97e1913d98778776",
  "bytecode": "0x608060405234801561001057600080fd5b5061034a806100206000396000f3fe608060405234801561001057600080fd5b50600436106100365760003560e01c80638da5cb5b1461003b578063f2fde38b1461005f575b600080fd5b610043610074565b6040516001600160a01b03909116815260200160405180910390f35b61007261006d36600461027c565b6100ac565b005b60006100a77fc8fcad8db84d3cc18b4c41d551ea0ee66dd599cde068d998e57d5e09332c131f546001600160a01b031690565b905090565b6100b46100c0565b6100bd8161014a565b50565b7fc8fcad8db84d3cc18b4c41d551ea0ee66dd599cde068d998e57d5e09332c131c600301546001600160a01b03163314610148577fc8fcad8db84d3cc18b4c41d551ea0ee66dd599cde068d998e57d5e09332c131f5460408051600162bed83560e01b031981523360048201526001600160a01b039092166024830152519081900360440190fd5b565b60007fc8fcad8db84d3cc18b4c41d551ea0ee66dd599cde068d998e57d5e09332c131c6003810180546001600160a01b038581166001600160a01b0319831617909255604080518082019091526012815271736574436f6e74726163744f776e6572282960701b602082015292935016906101c690828561020b565b826001600160a01b0316816001600160a01b03167f8be0079c531659141344cd1fd0a4f28419497f9722a3daafe3b4186f6b6457e060405160405180910390a3505050565b610252838383604051602401610223939291906102ac565b60408051601f198184030181529190526020810180516001600160e01b03166307e763af60e51b179052610257565b505050565b6100bd8160006a636f6e736f6c652e6c6f679050600080835160208501845afa505050565b60006020828403121561028e57600080fd5b81356001600160a01b03811681146102a557600080fd5b9392505050565b606081526000845180606084015260005b818110156102da57602081880181015160808684010152016102bd565b50600060808285018101919091526001600160a01b03958616602085015293909416604083015250601f909201601f19169091010191905056fea26469706673582212203fbc086971da78e646803f636fad52162c4ae60862dc37b851f2192806881f0c64736f6c63430008110033",
  "devdoc": {
    "kind": "dev",
    "methods": {
      "owner()": {
        "returns": {
          "owner_": "The address of the owner."
        }
      },
      "transferOwnership(address)": {
        "details": "Set _newOwner to address(0) to renounce any ownership.",
        "params": {
          "_newOwner": "The address of the new owner of the contract"
        }
      }
    },
    "version": 1
  },
  "userdoc": {
    "kind": "user",
    "methods": {
      "owner()": {
        "notice": "Get the address of the owner"
      },
      "transferOwnership(address)": {
        "notice": "Set the address of the new owner of the contract"
      }
    },
    "version": 1
  },
  "storageLayout": {
    "storage": [],
    "types": null
  }
}