{
  "address": "0x4C482d139AF6F78e5f5ba27882b4f9Ee44Ff7f82",
  "abi": [
    {
      "inputs": [
        {
          "internalType": "uint256",
          "name": "subscriptionId",
          "type": "uint256"
        }
      ],
      "stateMutability": "nonpayable",
      "type": "constructor"
    },
    {
      "inputs": [
        {
          "internalType": "address",
          "name": "have",
          "type": "address"
        },
        {
          "internalType": "address",
          "name": "want",
          "type": "address"
        }
      ],
      "name": "OnlyCoordinatorCanFulfill",
      "type": "error"
    },
    {
      "inputs": [
        {
          "internalType": "address",
          "name": "have",
          "type": "address"
        },
        {
          "internalType": "address",
          "name": "owner",
          "type": "address"
        },
        {
          "internalType": "address",
          "name": "coordinator",
          "type": "address"
        }
      ],
      "name": "OnlyOwnerOrCoordinator",
      "type": "error"
    },
    {
      "inputs": [],
      "name": "ZeroAddress",
      "type": "error"
    },
    {
      "anonymous": false,
      "inputs": [
        {
          "indexed": false,
          "internalType": "address",
          "name": "vrfCoordinator",
          "type": "address"
        }
      ],
      "name": "CoordinatorSet",
      "type": "event"
    },
    {
      "anonymous": false,
      "inputs": [
        {
          "indexed": true,
          "internalType": "address",
          "name": "from",
          "type": "address"
        },
        {
          "indexed": true,
          "internalType": "address",
          "name": "to",
          "type": "address"
        }
      ],
      "name": "OwnershipTransferRequested",
      "type": "event"
    },
    {
      "anonymous": false,
      "inputs": [
        {
          "indexed": true,
          "internalType": "address",
          "name": "from",
          "type": "address"
        },
        {
          "indexed": true,
          "internalType": "address",
          "name": "to",
          "type": "address"
        }
      ],
      "name": "OwnershipTransferred",
      "type": "event"
    },
    {
      "anonymous": false,
      "inputs": [
        {
          "indexed": false,
          "internalType": "uint256",
          "name": "requestId",
          "type": "uint256"
        },
        {
          "indexed": false,
          "internalType": "uint256[]",
          "name": "randomWords",
          "type": "uint256[]"
        }
      ],
      "name": "RequestFulfilled",
      "type": "event"
    },
    {
      "anonymous": false,
      "inputs": [
        {
          "indexed": false,
          "internalType": "uint256",
          "name": "requestId",
          "type": "uint256"
        },
        {
          "indexed": false,
          "internalType": "uint32",
          "name": "numWords",
          "type": "uint32"
        }
      ],
      "name": "RequestSent",
      "type": "event"
    },
    {
      "inputs": [],
      "name": "acceptOwnership",
      "outputs": [],
      "stateMutability": "nonpayable",
      "type": "function"
    },
    {
      "inputs": [],
      "name": "callbackGasLimit",
      "outputs": [
        {
          "internalType": "uint32",
          "name": "",
          "type": "uint32"
        }
      ],
      "stateMutability": "view",
      "type": "function"
    },
    {
      "inputs": [
        {
          "internalType": "uint256",
          "name": "_requestId",
          "type": "uint256"
        }
      ],
      "name": "getRequestStatus",
      "outputs": [
        {
          "internalType": "bool",
          "name": "fulfilled",
          "type": "bool"
        },
        {
          "internalType": "uint256",
          "name": "randomResult",
          "type": "uint256"
        }
      ],
      "stateMutability": "view",
      "type": "function"
    },
    {
      "inputs": [],
      "name": "keyHash",
      "outputs": [
        {
          "internalType": "bytes32",
          "name": "",
          "type": "bytes32"
        }
      ],
      "stateMutability": "view",
      "type": "function"
    },
    {
      "inputs": [],
      "name": "lastRequestId",
      "outputs": [
        {
          "internalType": "uint256",
          "name": "",
          "type": "uint256"
        }
      ],
      "stateMutability": "view",
      "type": "function"
    },
    {
      "inputs": [],
      "name": "numWords",
      "outputs": [
        {
          "internalType": "uint32",
          "name": "",
          "type": "uint32"
        }
      ],
      "stateMutability": "view",
      "type": "function"
    },
    {
      "inputs": [],
      "name": "owner",
      "outputs": [
        {
          "internalType": "address",
          "name": "",
          "type": "address"
        }
      ],
      "stateMutability": "view",
      "type": "function"
    },
    {
      "inputs": [],
      "name": "purpose",
      "outputs": [
        {
          "internalType": "string",
          "name": "",
          "type": "string"
        }
      ],
      "stateMutability": "view",
      "type": "function"
    },
    {
      "inputs": [
        {
          "internalType": "uint256",
          "name": "requestId",
          "type": "uint256"
        },
        {
          "internalType": "uint256[]",
          "name": "randomWords",
          "type": "uint256[]"
        }
      ],
      "name": "rawFulfillRandomWords",
      "outputs": [],
      "stateMutability": "nonpayable",
      "type": "function"
    },
    {
      "inputs": [],
      "name": "requestConfirmations",
      "outputs": [
        {
          "internalType": "uint16",
          "name": "",
          "type": "uint16"
        }
      ],
      "stateMutability": "view",
      "type": "function"
    },
    {
      "inputs": [
        {
          "internalType": "uint256",
          "name": "",
          "type": "uint256"
        }
      ],
      "name": "requestIds",
      "outputs": [
        {
          "internalType": "uint256",
          "name": "",
          "type": "uint256"
        }
      ],
      "stateMutability": "view",
      "type": "function"
    },
    {
      "inputs": [
        {
          "internalType": "bool",
          "name": "enableNativePayment",
          "type": "bool"
        }
      ],
      "name": "requestRandomNumber",
      "outputs": [
        {
          "internalType": "uint256",
          "name": "requestId",
          "type": "uint256"
        }
      ],
      "stateMutability": "nonpayable",
      "type": "function"
    },
    {
      "inputs": [
        {
          "internalType": "uint256",
          "name": "",
          "type": "uint256"
        }
      ],
      "name": "s_requests",
      "outputs": [
        {
          "internalType": "bool",
          "name": "fulfilled",
          "type": "bool"
        },
        {
          "internalType": "bool",
          "name": "exists",
          "type": "bool"
        },
        {
          "internalType": "uint256",
          "name": "randomResult",
          "type": "uint256"
        }
      ],
      "stateMutability": "view",
      "type": "function"
    },
    {
      "inputs": [],
      "name": "s_subscriptionId",
      "outputs": [
        {
          "internalType": "uint256",
          "name": "",
          "type": "uint256"
        }
      ],
      "stateMutability": "view",
      "type": "function"
    },
    {
      "inputs": [],
      "name": "s_vrfCoordinator",
      "outputs": [
        {
          "internalType": "contract IVRFCoordinatorV2Plus",
          "name": "",
          "type": "address"
        }
      ],
      "stateMutability": "view",
      "type": "function"
    },
    {
      "inputs": [
        {
          "internalType": "address",
          "name": "_vrfCoordinator",
          "type": "address"
        }
      ],
      "name": "setCoordinator",
      "outputs": [],
      "stateMutability": "nonpayable",
      "type": "function"
    },
    {
      "inputs": [
        {
          "internalType": "string",
          "name": "newPurpose",
          "type": "string"
        }
      ],
      "name": "setPurpose",
      "outputs": [],
      "stateMutability": "nonpayable",
      "type": "function"
    },
    {
      "inputs": [
        {
          "internalType": "address",
          "name": "to",
          "type": "address"
        }
      ],
      "name": "transferOwnership",
      "outputs": [],
      "stateMutability": "nonpayable",
      "type": "function"
    }
  ],
  "transactionHash": "0xdf024a747a1ae07e2c7e60e1462046a986c1536936bfc2bd7604f8ca43154acd",
  "args": [
    "107878091187149263015141815024525257687721135615365384364090311586841463861613"
  ],
  "numDeployments": 1,
  "solcInputHash": "d9e4306e4fe2884c6116055a3ae2eb1d",
  "bytecode": "0x7f787d74caea10b2b357790d5b5247c2f63d1d91572a9846f780606e4d953677ae60075560e060405260256080818152906200128e60a039600890620000469082620002d3565b50600980546001600160501b03191666010003000186a01790553480156200006d57600080fd5b50604051620012b3380380620012b383398101604081905262000090916200039f565b739ddfaca8183c41ad55329bdeed9f6a8d53168b1b3380600081620000fc5760405162461bcd60e51b815260206004820152601860248201527f43616e6e6f7420736574206f776e657220746f207a65726f000000000000000060448201526064015b60405180910390fd5b600080546001600160a01b0319166001600160a01b03848116919091179091558116156200012f576200012f8162000183565b5050506001600160a01b0381166200015a5760405163d92e233d60e01b815260040160405180910390fd5b600280546001600160a01b0319166001600160a01b0392909216919091179055600455620003b9565b336001600160a01b03821603620001dd5760405162461bcd60e51b815260206004820152601760248201527f43616e6e6f74207472616e7366657220746f2073656c660000000000000000006044820152606401620000f3565b600180546001600160a01b0319166001600160a01b0383811691821790925560008054604051929316917fed8889f560326eb138920d842192f0eb3dd22b4f139c87a2c57538e05bae12789190a350565b634e487b7160e01b600052604160045260246000fd5b600181811c908216806200025957607f821691505b6020821081036200027a57634e487b7160e01b600052602260045260246000fd5b50919050565b601f821115620002ce57600081815260208120601f850160051c81016020861015620002a95750805b601f850160051c820191505b81811015620002ca57828155600101620002b5565b5050505b505050565b81516001600160401b03811115620002ef57620002ef6200022e565b620003078162000300845462000244565b8462000280565b602080601f8311600181146200033f5760008415620003265750858301515b600019600386901b1c1916600185901b178555620002ca565b600085815260208120601f198616915b8281101562000370578886015182559484019460019091019084016200034f565b50858210156200038f5787850151600019600388901b60f8161c191681555b5050505050600190811b01905550565b600060208284031215620003b257600080fd5b5051919050565b610ec580620003c96000396000f3fe608060405234801561001057600080fd5b50600436106101165760003560e01c80638da5cb5b116100a2578063b0fb162f11610071578063b0fb162f14610270578063d8a4676f14610299578063eb68757f146102c3578063f2fde38b146102d6578063fc2a88c3146102e957600080fd5b80638da5cb5b146101d45780638ea98117146101f95780639eccacf61461020c578063a168fa891461021f57600080fd5b806370740aab116100e957806370740aab1461018457806379ba5097146101995780637ccfd7fc146101a15780638796ba8c146101b85780638ac00021146101cb57600080fd5b80631fe543e31461011b57806324f7469714610130578063301194cb1461015a57806361728f391461017b575b600080fd5b61012e610129366004610a68565b6102f2565b005b6009546101409063ffffffff1681565b60405163ffffffff90911681526020015b60405180910390f35b61016d610168366004610ae7565b610347565b604051908152602001610151565b61016d60075481565b61018c610509565b6040516101519190610b56565b61012e610597565b60095461014090600160301b900463ffffffff1681565b61016d6101c6366004610b69565b610641565b61016d60045481565b6000546001600160a01b03165b6040516001600160a01b039091168152602001610151565b61012e610207366004610b82565b610662565b6002546101e1906001600160a01b031681565b61025361022d366004610b69565b6003602052600090815260409020805460019091015460ff808316926101009004169083565b604080519315158452911515602084015290820152606001610151565b60095461028690640100000000900461ffff1681565b60405161ffff9091168152602001610151565b6102ac6102a7366004610b69565b610754565b604080519215158352602083019190915201610151565b61012e6102d1366004610bc1565b6107f3565b61012e6102e4366004610b82565b610803565b61016d60065481565b6002546001600160a01b031633146103375760025460405163073e64fd60e21b81523360048201526001600160a01b0390911660248201526044015b60405180910390fd5b610342838383610817565b505050565b60006103516108f9565b6002546040805160c081018252600754815260045460208083019190915260095461ffff6401000000008204168385015263ffffffff8082166060850152600160301b909104166080830152825190810190925284151582526001600160a01b0390921691639b1c385e9160a08201906103ca9061094e565b8152506040518263ffffffff1660e01b81526004016103e99190610c72565b6020604051808303816000875af1158015610408573d6000803e3d6000fd5b505050506040513d601f19601f8201168201806040525081019061042c9190610cd7565b604080516060810182526000808252600160208084018281528486018481528785526003835286852095518654925161ffff1990931690151561ff001916176101009215159290920291909117855551938201939093556005805491820181559091527f036b6384b5eca791c62761152d0c79bb0604c104a5fb6f4eb0703f3154bb3db00183905560068390556009548251848152600160301b90910463ffffffff16918101919091529192507fcc58b13ad3eab50626c6a6300b1d139cd6ebb1688a7cced9461c2f7e762665ee910160405180910390a1919050565b6008805461051690610cf0565b80601f016020809104026020016040519081016040528092919081815260200182805461054290610cf0565b801561058f5780601f106105645761010080835404028352916020019161058f565b820191906000526020600020905b81548152906001019060200180831161057257829003601f168201915b505050505081565b6001546001600160a01b031633146105ea5760405162461bcd60e51b815260206004820152601660248201527526bab9ba10313290383937b837b9b2b21037bbb732b960511b604482015260640161032e565b60008054336001600160a01b0319808316821784556001805490911690556040516001600160a01b0390921692909183917f8be0079c531659141344cd1fd0a4f28419497f9722a3daafe3b4186f6b6457e091a350565b6005818154811061065157600080fd5b600091825260209091200154905081565b6000546001600160a01b0316331480159061068857506002546001600160a01b03163314155b156106d957336106a06000546001600160a01b031690565b60025460405163061db9c160e01b81526001600160a01b039384166004820152918316602483015291909116604482015260640161032e565b6001600160a01b0381166107005760405163d92e233d60e01b815260040160405180910390fd5b600280546001600160a01b0319166001600160a01b0383169081179091556040519081527fd1a6a14209a385a964d036e404cb5cfb71f4000cdb03c9366292430787261be69060200160405180910390a150565b6000818152600360205260408120548190610100900460ff166107ad5760405162461bcd60e51b81526020600482015260116024820152701c995c5d595cdd081b9bdd08199bdd5b99607a1b604482015260640161032e565b50506000908152600360209081526040918290208251606081018452815460ff808216151580845261010090920416151593820193909352600190910154920182905291565b60086107ff8282610d78565b5050565b61080b6108f9565b610814816109bf565b50565b600083815260036020526040902054610100900460ff1661086e5760405162461bcd60e51b81526020600482015260116024820152701c995c5d595cdd081b9bdd08199bdd5b99607a1b604482015260640161032e565b6000838152600360205260408120805460ff19166001179055829082908161089857610898610e38565b9050602002013560036000858152602001908152602001600020600101819055507ffe2e2d779dba245964d4e3ef9b994be63856fd568bf7d3ca9e224755cb1bd54d8383836040516108ec93929190610e4e565b60405180910390a1505050565b6000546001600160a01b0316331461094c5760405162461bcd60e51b815260206004820152601660248201527527b7363c9031b0b63630b1363290313c9037bbb732b960511b604482015260640161032e565b565b60607f92fd13387c7fe7befbc38d303d6468778fb9731bc4583f17d92989c6fcfdeaaa8260405160240161098791511515815260200190565b60408051601f198184030181529190526020810180516001600160e01b03166001600160e01b03199093169290921790915292915050565b336001600160a01b03821603610a175760405162461bcd60e51b815260206004820152601760248201527f43616e6e6f74207472616e7366657220746f2073656c66000000000000000000604482015260640161032e565b600180546001600160a01b0319166001600160a01b0383811691821790925560008054604051929316917fed8889f560326eb138920d842192f0eb3dd22b4f139c87a2c57538e05bae12789190a350565b600080600060408486031215610a7d57600080fd5b83359250602084013567ffffffffffffffff80821115610a9c57600080fd5b818601915086601f830112610ab057600080fd5b813581811115610abf57600080fd5b8760208260051b8501011115610ad457600080fd5b6020830194508093505050509250925092565b600060208284031215610af957600080fd5b81358015158114610b0957600080fd5b9392505050565b6000815180845260005b81811015610b3657602081850181015186830182015201610b1a565b506000602082860101526020601f19601f83011685010191505092915050565b602081526000610b096020830184610b10565b600060208284031215610b7b57600080fd5b5035919050565b600060208284031215610b9457600080fd5b81356001600160a01b0381168114610b0957600080fd5b634e487b7160e01b600052604160045260246000fd5b600060208284031215610bd357600080fd5b813567ffffffffffffffff80821115610beb57600080fd5b818401915084601f830112610bff57600080fd5b813581811115610c1157610c11610bab565b604051601f8201601f19908116603f01168101908382118183101715610c3957610c39610bab565b81604052828152876020848701011115610c5257600080fd5b826020860160208301376000928101602001929092525095945050505050565b60208152815160208201526020820151604082015261ffff60408301511660608201526000606083015163ffffffff80821660808501528060808601511660a0850152505060a083015160c080840152610ccf60e0840182610b10565b949350505050565b600060208284031215610ce957600080fd5b5051919050565b600181811c90821680610d0457607f821691505b602082108103610d2457634e487b7160e01b600052602260045260246000fd5b50919050565b601f82111561034257600081815260208120601f850160051c81016020861015610d515750805b601f850160051c820191505b81811015610d7057828155600101610d5d565b505050505050565b815167ffffffffffffffff811115610d9257610d92610bab565b610da681610da08454610cf0565b84610d2a565b602080601f831160018114610ddb5760008415610dc35750858301515b600019600386901b1c1916600185901b178555610d70565b600085815260208120601f198616915b82811015610e0a57888601518255948401946001909101908401610deb565b5085821015610e285787850151600019600388901b60f8161c191681555b5050505050600190811b01905550565b634e487b7160e01b600052603260045260246000fd5b838152604060208201819052810182905260006001600160fb1b03831115610e7557600080fd5b8260051b808560608501379190910160600194935050505056fea264697066735822122084b1488abffc6434b023b1de966ffc3d89a5e3344233d02d40d0cceda161d32d64736f6c634300081300334275696c64696e6720644170707320776974682072616e646f6d206e756d62657273212121",
  "devdoc": {
    "kind": "dev",
    "methods": {},
    "version": 1
  },
  "userdoc": {
    "kind": "user",
    "methods": {
      "acceptOwnership()": {
        "notice": "Allows an ownership transfer to be completed by the recipient."
      },
      "owner()": {
        "notice": "Get the current owner"
      },
      "setCoordinator(address)": {
        "notice": "Sets the VRF Coordinator addressThis method should only be callable by the coordinator or contract owner"
      },
      "transferOwnership(address)": {
        "notice": "Allows an owner to begin transferring ownership to a new address."
      }
    },
    "version": 1
  },
  "storageLayout": {
    "storage": [
      {
        "astId": 1117,
        "contract": "contracts/RandomNumberConsumer.sol:RandomNumberConsumer",
        "label": "s_owner",
        "offset": 0,
        "slot": "0",
        "type": "t_address"
      },
      {
        "astId": 1119,
        "contract": "contracts/RandomNumberConsumer.sol:RandomNumberConsumer",
        "label": "s_pendingOwner",
        "offset": 0,
        "slot": "1",
        "type": "t_address"
      },
      {
        "astId": 2439,
        "contract": "contracts/RandomNumberConsumer.sol:RandomNumberConsumer",
        "label": "s_vrfCoordinator",
        "offset": 0,
        "slot": "2",
        "type": "t_contract(IVRFCoordinatorV2Plus)2588"
      },
      {
        "astId": 3621,
        "contract": "contracts/RandomNumberConsumer.sol:RandomNumberConsumer",
        "label": "s_requests",
        "offset": 0,
        "slot": "3",
        "type": "t_mapping(t_uint256,t_struct(RequestStatus)3616_storage)"
      },
      {
        "astId": 3623,
        "contract": "contracts/RandomNumberConsumer.sol:RandomNumberConsumer",
        "label": "s_subscriptionId",
        "offset": 0,
        "slot": "4",
        "type": "t_uint256"
      },
      {
        "astId": 3626,
        "contract": "contracts/RandomNumberConsumer.sol:RandomNumberConsumer",
        "label": "requestIds",
        "offset": 0,
        "slot": "5",
        "type": "t_array(t_uint256)dyn_storage"
      },
      {
        "astId": 3628,
        "contract": "contracts/RandomNumberConsumer.sol:RandomNumberConsumer",
        "label": "lastRequestId",
        "offset": 0,
        "slot": "6",
        "type": "t_uint256"
      },
      {
        "astId": 3631,
        "contract": "contracts/RandomNumberConsumer.sol:RandomNumberConsumer",
        "label": "keyHash",
        "offset": 0,
        "slot": "7",
        "type": "t_bytes32"
      },
      {
        "astId": 3634,
        "contract": "contracts/RandomNumberConsumer.sol:RandomNumberConsumer",
        "label": "purpose",
        "offset": 0,
        "slot": "8",
        "type": "t_string_storage"
      },
      {
        "astId": 3637,
        "contract": "contracts/RandomNumberConsumer.sol:RandomNumberConsumer",
        "label": "callbackGasLimit",
        "offset": 0,
        "slot": "9",
        "type": "t_uint32"
      },
      {
        "astId": 3640,
        "contract": "contracts/RandomNumberConsumer.sol:RandomNumberConsumer",
        "label": "requestConfirmations",
        "offset": 4,
        "slot": "9",
        "type": "t_uint16"
      },
      {
        "astId": 3643,
        "contract": "contracts/RandomNumberConsumer.sol:RandomNumberConsumer",
        "label": "numWords",
        "offset": 6,
        "slot": "9",
        "type": "t_uint32"
      }
    ],
    "types": {
      "t_address": {
        "encoding": "inplace",
        "label": "address",
        "numberOfBytes": "20"
      },
      "t_array(t_uint256)dyn_storage": {
        "base": "t_uint256",
        "encoding": "dynamic_array",
        "label": "uint256[]",
        "numberOfBytes": "32"
      },
      "t_bool": {
        "encoding": "inplace",
        "label": "bool",
        "numberOfBytes": "1"
      },
      "t_bytes32": {
        "encoding": "inplace",
        "label": "bytes32",
        "numberOfBytes": "32"
      },
      "t_contract(IVRFCoordinatorV2Plus)2588": {
        "encoding": "inplace",
        "label": "contract IVRFCoordinatorV2Plus",
        "numberOfBytes": "20"
      },
      "t_mapping(t_uint256,t_struct(RequestStatus)3616_storage)": {
        "encoding": "mapping",
        "key": "t_uint256",
        "label": "mapping(uint256 => struct RandomNumberConsumer.RequestStatus)",
        "numberOfBytes": "32",
        "value": "t_struct(RequestStatus)3616_storage"
      },
      "t_string_storage": {
        "encoding": "bytes",
        "label": "string",
        "numberOfBytes": "32"
      },
      "t_struct(RequestStatus)3616_storage": {
        "encoding": "inplace",
        "label": "struct RandomNumberConsumer.RequestStatus",
        "members": [
          {
            "astId": 3611,
            "contract": "contracts/RandomNumberConsumer.sol:RandomNumberConsumer",
            "label": "fulfilled",
            "offset": 0,
            "slot": "0",
            "type": "t_bool"
          },
          {
            "astId": 3613,
            "contract": "contracts/RandomNumberConsumer.sol:RandomNumberConsumer",
            "label": "exists",
            "offset": 1,
            "slot": "0",
            "type": "t_bool"
          },
          {
            "astId": 3615,
            "contract": "contracts/RandomNumberConsumer.sol:RandomNumberConsumer",
            "label": "randomResult",
            "offset": 0,
            "slot": "1",
            "type": "t_uint256"
          }
        ],
        "numberOfBytes": "64"
      },
      "t_uint16": {
        "encoding": "inplace",
        "label": "uint16",
        "numberOfBytes": "2"
      },
      "t_uint256": {
        "encoding": "inplace",
        "label": "uint256",
        "numberOfBytes": "32"
      },
      "t_uint32": {
        "encoding": "inplace",
        "label": "uint32",
        "numberOfBytes": "4"
      }
    }
  }
}